:020000040800F2
:10000000300E00203102000849080008D50600081B
:1000100045080008E9040008DB0F000800000000A4
:10002000000000000000000000000000110A0008AD
:10003000F505000800000000C5080008290B0008AD
:100040004B0200084B0200084B0200084B0200085C
:100050004B0200084B0200084B0200084B0200084C
:100060004B0200084B0200084B0200084B0200083C
:100070004B0200084B0200084B0200084B0200082C
:100080004B0200084B0200084B0200084B0200081C
:100090004B0200084B0200084B0200084B0200080C
:1000A0004B0200084B0200084B0200084B020008FC
:1000B0004B020008950B00084B0200084B02000899
:1000C0004B0200084B0200084B0200084B020008DC
:1000D0004B020008010D00086D0D00084B020008DE
:1000E0004B0200084B0200084B0200084B020008BC
:1000F0004B0200084B0200084B0200084B020008AC
:100100004B0200084B0200084B0200084B0200089B
:100110004B0200084B0200084B0200084B0200088B
:100120004B0200084B0200084B0200084B0200087B
:100130004B0200084B0200084B0200084B0200086B
:100140004B0200084B0200084B0200084B0200085B
:100150004B0200084B0200084B0200084B0200084B
:100160004B0200084B0200084B0200084B0200083B
:100170004B0200084B0200084B0200084B0200082B
:100180004B0200084B02000800F002F800F041F8B2
:100190000AA090E8000C82448344AAF10107DA45E2
:1001A00001D100F036F8AFF2090EBAE80F0013F0F3
:1001B000010F18BFFB1A43F001031847B4180000E1
:1001C000D4180000103A24BF78C878C1FAD8520772
:1001D00024BF30C830C144BF04680C6070470000C1
:1001E0000023002400250026103A28BF78C1FBD840
:1001F000520728BF30C148BF0B607047642900F028
:100200007980002070471FB501F02CFC1FBD10B590
:1002100010BD00F037F91146FFF7F5FF01F0E8F8DF
:1002200000F055F903B4FFF7F2FF03BC00F0D7FE6E
:100230000948804709480047FEE7FEE7FEE7FEE77A
:10024000FEE7FEE7FEE7FEE7FEE7FEE704480549B6
:10025000054A064B704700002D0B00088901000875
:1002600030080020300E0020300A0020300A002024
:10027000704700000FB4044910B503AA029800F0BB
:10028000D3F810BC5DF814FB140000202DE9F041F8
:100290000E460446002020622046E168884730B3BD
:1002A000252805D0D4E901219047206A401CF2E7B7
:1002B000E168204600278847050018D0A5F14100D5
:1002C000192802D820354FF40067324629462046C7
:1002D0002760FFF793FF40B1012804D0F61D26F0F8
:1002E00007060836D8E7361DD6E72846DAE7206A3B
:1002F000BDE8F0812DE9F04106460024106875291B
:10030000314616A510D0AFF30080002802DA404233
:1003100013A507E031688A0701D512A502E0490755
:1003200004D511A5012401E0AFF3008000210A22C9
:1003300006F1240709E0B0FBF2FCB0FBF2F302FB8C
:100340001C00303078541846491C0028F3D123464D
:100350002A463046BDE8F04100F00CB8000000002D
:100360002D0000002B0000002000000070477047A7
:10037000704770472DE9F0470D469946924604466E
:1003800000F124080168880604D5E06921F0100115
:10039000216000E00120A84201DD471B00E00027AA
:1003A000A1697A1902EB0900081AA0612078C00639
:1003B00002D42046AFF30080002608E0D4E90121F2
:1003C0001AF806009047206A401C761C20624E45B1
:1003D000F4DB2078C0060AD52046AFF3008006E0A3
:1003E000D4E9012130209047206A401C2062381E49
:1003F000A7F10107F4DC07E0D4E9012118F80500B2
:100400009047206A401C2062281EA5F10105F3DCFC
:100410002046AFF300802078000602D50220BDE818
:10042000F0870120FBE70000074B70B50D467B44C9
:1004300000F011F80446284600F020F810B14FF003
:10044000FF3070BD204670BD8B0E000001694A1C54
:1004500002610878704700B58FB0CDE90131002105
:10046000059105497944CDE9031011466846FFF727
:100470000DFF0FB000BD0000E5FFFFFF007B00F0A7
:1004800080007047754600F02BF8AE4605006946BF
:10049000534620F00700854618B020B5FFF7D6FE7A
:1004A000BDE820404FF000064FF000074FF0000875
:1004B0004FF0000B21F00701AC46ACE8C009ACE8F6
:1004C000C009ACE8C009ACE8C0098D46704710B55A
:1004D0000446AFF300802046BDE81040FFF7A2BEFF
:1004E00000487047D007002000BFFEE736490A7871
:1004F0000978491C344B19703449885409785529B6
:1005000003D000211A46117070472F4909780B2932
:1005100000DAF9E72D494978503909294ED2DFE848
:1005200001F0050D151D252D353D45002849274AAB
:10053000921C13680B6052684A603FE02549234AC9
:10054000921C13680B6052684A6037E022491F4AC8
:10055000921C13680B6052684A602FE01F491B4AC7
:10056000921C13680B6052684A6027E01C49174AC6
:10057000921C13680B6052684A601FE01949134AC5
:10058000921C13680B6052684A6017E016490F4AC4
:10059000921C13680B6052684A600FE013490B4AC3
:1005A000921C13680B6052684A6007E01049074AC2
:1005B000921C13680B6052684A6000BF00BF0021A4
:1005C000014A117000BF9FE77C000020D406002084
:1005D000320000203A000020420000204A000020A3
:1005E000520000205A000020640000206C0000200F
:1005F000740000207047F0B50A4600210023002453
:1006000000BF3DE0012505FA01F3156805EA030482
:100610009C4234D105684F000326BE40B5430560B7
:1006200015794E00B5400668354305601579012DF2
:1006300002D01579022D16D185684F000326BE40E1
:10064000B543856055794E00B54086683543856071
:10065000456801268E40B5434560456896798E40D1
:10066000B6B235434560C5684F000326BE40B5436A
:10067000C560D5794E00B540C6683543C560491C94
:100680001029BFD3F0BDF0B5002300244D07ED0EB7
:1006900002FA05F3CE1000F1200555F826504E075A
:1006A000F70E0F26BE40B543CF1000F1200646F8E6
:1006B0002750CE1000F1200555F8265045EA0304D6
:1006C000CE1000F1200545F82640F0BD418370476B
:1006D0000183704700BFFEE710B588B004460121D2
:1006E000334800F001F90420069002208DF81C0028
:1006F00003208DF81D0000208DF81E0001208DF8CC
:100700001F0006A92B48FFF776FF0820069002205D
:100710008DF81C0003208DF81D0000208DF81E00B0
:1007200001208DF81F0006A92248FFF764FF072269
:1007300002212048FFF7A7FF072203211D48FFF7EA
:10074000A2FF02940020ADF80C00ADF80E00ADF849
:100750001000ADF814000C20ADF8120002A91648E4
:1007600000F0C8FB002240F22771134800F09DFB07
:10077000012240F22551104800F097FB40210E481D
:1007800000F038FB01210C4800F04CFB26208DF8CE
:10079000040001208DF8050008208DF806000120D6
:1007A0008DF8070001A800F051F808B010BD000056
:1007B0000100020000000240004400401CB501217D
:1007C000084600F081F8C020009001208DF8040058
:1007D00000208DF8060002208DF8050001208DF81C
:1007E000070069460348FFF706FFC0210148FFF7ED
:1007F0006FFF1CBD0000024010B510480068B0F546
:10080000FA7F09D30D480068B0F57A7F04D2402101
:100810000B48FFF75DFF0BE008480068B0F57A7FF2
:1008200006D340210648FFF751FF00200349086026
:1008300002480068401C0149086010BD1C000020EF
:100840000000024000BFFEE77047000070B50021C5
:1008500000230F22C4781CB3174C246804F4E0640E
:10086000C4F5E064C4F30721C1F10404E3B20A4112
:1008700044789C40E1B28478144021430C07210E57
:100880000E4C05786155047804F01F050124AC4036
:1008900005786D11AD0005F1E025C5F8004109E0CE
:1008A000047804F01F050124AC40054D067876114C
:1008B00045F8264070BD00000CED00E000E400E0CB
:1008C00080E100E07047000029B1064A1268024347
:1008D000044B1A6004E0034A12688243014B1A6019
:1008E000704700003038024029B1064A12680243BE
:1008F000044B1A6004E0034A12688243014B1A60F9
:10090000704700004038024029B1064A126802438D
:10091000044B1A6004E0034A12688243014B1A60D8
:100920007047000044380240F0B500210022002446
:10093000022500260223324F3F6807F00C0121B147
:10094000042905D0082937D105E02E4F076036E08D
:100950002D4F076033E02A4F3F1F3F68C7F3805693
:10096000274F3F1F3F6807F03F036EB1264FB7FB8D
:10097000F3F7DFF88CC0ACF1040CDCF800C0CCF36A
:10098000881C07FB0CF40CE01E4FB7FBF3F7DFF8F5
:1009900070C0ACF1040CDCF800C0CCF3881C07FB81
:1009A0000CF4174F3F1F3F68C7F301477F1C7D00C2
:1009B000B4FBF5F7076002E0124F076000BF00BF0D
:1009C0000F4F3F6807F0F0010909104F7A5C076884
:1009D000D74047600A4F3F6807F4E051890A0B4F40
:1009E0007A5C4768D7408760054F3F6807F46041ED
:1009F000490B064F7A5C4768D740C760F0BD0000DE
:100A0000083802400024F40000127A0000000020A0
:100A1000704700000CB50020019000903448006839
:100A200040F480303249086000BF3148006800F46B
:100A3000003000900198401C0190009818B901986E
:100A4000B0F5A04FF1D12A48006800F4003010B191
:100A50000120009001E0002000900098012846D17C
:100A600023484030006840F0805021494031086000
:100A70002048006840F440401E4908601C48083087
:100A800000681B49083108600846006840F40040CF
:100A900008600846006840F4A05008601648091F26
:100AA0000860081F006840F08070091F086000BFE0
:100AB0000F48006800F000700028F9D040F205707F
:100AC0000E4908600A480830006820F00300084911
:100AD000083108600846006840F00200086000BF66
:100AE00003480830006800F00C000828F8D10CBD5D
:100AF000003802400070004008544007003C0240AB
:100B0000042808D14FF0E021096941F004014FF0B9
:100B1000E022116107E04FF0E021096921F00401B2
:100B20004FF0E022116170477047000010B5154882
:100B3000006840F47000134908601348006840F0F2
:100B400001001149086000200F49083108600E4873
:100B500000680E4908400C4908600D48091D0860EE
:100B6000081F006820F48020091F08600020064943
:100B70000C310860FFF74EFF4FF0006001498039EB
:100B8000086010BD88ED00E000380240FFFFF6FE6F
:100B90001030002410B50121054800F048F8012864
:100BA00001D100F0A1F80121014800F031F810BD99
:100BB000000400407FB505460C4601210220FFF7E6
:100BC00093FE0295ADF804400020ADF80600ADF8A4
:100BD0000C0001A90D4800F045F8012211460B4810
:100BE00000F036F80121094800F015F81D208DF8B5
:100BF000000001208DF8010003208DF80200012083
:100C00008DF803006846FFF721FE7FBD0004004019
:100C1000CA430282704721B1028842F00102028079
:100C200004E002884FF6FE731A400280704730B528
:100C30000246002000230024158A05EA0103958955
:100C400005EA010413B10CB1012000E0002030BD21
:100C50001AB183890B43838102E083898B438381AB
:100C60007047000000220288184B98420ED0184BA3
:100C700098420BD0B0F1804F08D0164B984205D067
:100C8000154B984202D0154B984204D14FF68F7302
:100C90001A404B881A43124B984207D0114B984286
:100CA00004D04FF6FF431A400B891A4302804B6869
:100CB000C3620B880385054B984202D0044B9842CF
:100CC00001D18B7A038601238382704700000140A3
:100CD000000401400004004000080040000C0040F7
:100CE000001000400014004010B5002000F016FD78
:100CF000FFF782FD00F076F900F0C8FB10BD0000A0
:100D000010B540F22551164800F0A5F838B3144844
:100D100000F05AF9C4B2232C02D100201149087006
:100D200011481049097844540078232817D10E48F7
:100D3000C079212808D10B480078072804D100F099
:100D4000E7FB00200749087006480078401C054969
:100D5000087008460078082801DB0020087010BDE4
:100D6000001001401A000020C001002010B540F220
:100D700027711C4800F06FF8E0B11B48027800783A
:100D8000401C194B18701948815C164800F021F975
:100D900040F22771134800F036F8134800781449E0
:100DA0000978884217D1002240F227710D4800F0DF
:100DB0007CF810E040F225510A4800F04CF850B1A0
:100DC0000849091D0988C8B2FFF790FB40F2255178
:100DD000044800F018F84FF45871024800F013F876
:100DE00010BD00000044004030000020D405002069
:100DF0003100002001F40072B2F5007F00D100BF85
:100E0000CA430280704710B50022002340F66A14DE
:100E1000A14200D100BF0A1201249440A3B2DC43D6
:100E2000048010BD21B1828942F40052828104E025
:100E300082894DF6FF731A40828170470246002076
:100E4000B1F5007F00D100BF13880B400BB101202A
:100E500000E00020704770B5024600240023002502
:100E6000002040F66A16B14200D100BFC1F342151E
:100E700001F01F03012606FA03F3012D02D1968922
:100E8000334006E0022D02D1168A334001E0968AF3
:100E900033400C12012606FA04F41688344013B1CC
:100EA0000CB1012000E0002070BDF0B50346002425
:100EB00000260025002040F66A17B94200D100BF85
:100EC0001846C1F3421401F01F06012707FA06F580
:100ED000012C01D10C3004E0022C01D1103000E0D3
:100EE00014301AB107682F43076002E00768AF4368
:100EF0000760F0BD2DE9FF4705460E460024A146D8
:100F000000BFA046B08900B100BF2C8A24F4405431
:100F1000F08804432C82AC8941F20C608443B08891
:100F200031890843718908430443AC81AC8A24F4B5
:100F30004074B0890443AC826846FFF7F5FC204852
:100F4000854202D01F48854202D1DDF80C9001E0B5
:100F5000DDF80890A88900F4004040B109EBC90011
:100F600000EB091031684900B0FBF1F707E009EB2D
:100F7000C90000EB091031688900B0FBF1F764206B
:100F8000B7FBF0F004012009642101FB1078A88967
:100F900000F4004040B1322000EBC800B0FBF1F09B
:100FA00000F00700044308E0322000EB0810642141
:100FB000B0FBF1F000F00F0004432C81BDE8FF8787
:100FC000001001400014014001468888C0F3080069
:100FD0007047C1F308028280704700BFFEE70146F8
:100FE00000BF704770B500251DE0002417E005EB39
:100FF00045000F4901EB800050F82410681C00EBFD
:1010000040000B4A02EB800050F82400814204D3D8
:10101000022000F083FB002070BD601CC4B2022CD3
:10102000E5DB681CC5B2042DDFDB0120F4E700001E
:101030005804002010B5002400BF51E02A4850F8A1
:1010400024103C3050F82400814208D2611C01EB8E
:10105000410202EBC101C8B200F060FB0EE0224881
:1010600050F82410303050F82400814206D9611C19
:1010700001EB81014906080E00F050FB1A480C30C4
:1010800050F82410303050F8240081420FD2164816
:101090003C3050F82410303840F82410611C01EB2B
:1010A000810202EBC101C8B200F038FB16E00E4825
:1010B0000C3050F82410243050F8240081420DD90F
:1010C0000948303050F82410243840F82410611CAE
:1010D00001EB41018906080E00F020FB601CC4B240
:1010E000032CABDB10BD000088020020014600226B
:1010F000002002E00B5C1A44401C0628FAD310467C
:101100007047000010B504466FF00400FFF7F8FCCC
:10111000E11704EB5171C1F3C701074A1170104682
:10112000007800EB4001C1EBC0104FF6FF7101EAFF
:10113000C0000249088010BD1000002012000020ED
:1011400070B504464FF4077094FBF0F0C6B24FF44C
:10115000077094FBF0F100FB114085B205E04FF4FD
:10116000077000F009F8701EC6B2002EF7D115B155
:10117000284600F001F870BD0146114A12884A4322
:101180004FF0E0235A6100229A611A46126942F038
:1011900001021A6100BF4FF0E022106900F0010265
:1011A0001AB100F48032002AF5D04FF0E022126923
:1011B00022F001024FF0E0231A6100229A61704789
:1011C0001200002030B5002410E0611CC8B20021DC
:1011D00000F05CFB611CC8B200F0D8F80546611C49
:1011E000C8B2294600F0A0FA601CC4B2032CECDBA4
:1011F00030BD0000F8B505460026002459E0052D55
:1012000001D200264EE0052D10D30A2D0ED82A4813
:1012100050F82400009028480C3850F824300A2256
:101220000521284600F0B7FB06463BE00A2D10D307
:101230000F2D0ED820480C3050F8240000901E4886
:1012400050F824300F220A21284600F0A4FB06465D
:1012500028E00F2D11D3142D0FD81748183050F84F
:101260002400009014480C3050F8243014220F2130
:10127000284600F090FB064614E0142D11D3192DDA
:101280000FD80D48243050F8240000900A48183038
:1012900050F8243019221421284600F07CFB064621
:1012A00000E00026611CC8B2314600F03DFA601C27
:1012B000C4B2032CA3DBF8BD6404002070B504465F
:1012C0000D4600BF40210548FFF7B8FD0028F9D0C2
:1012D000E1B20248FFF77DFE204670BD00100140DC
:1012E00010B505210848C0F8841000F00FF8064931
:1012F000C1F8880000210448C0F88C10C0F8901094
:10130000C0F8941010BD0000DC02002001480078F5
:10131000704700002E0000200146012906DB03294A
:1013200004DC481E024A52F8200070470020FCE707
:101330009402002010B5002423E0601C124901EB48
:1013400044114860611CC8B200F020F80E4901EB5E
:1013500044118860611CC8B2FFF7DEFF0A4901EB47
:101360004411C860611CC8B200F01EF8064901EBC8
:10137000441108610020044901EB44114861601CDC
:10138000C4B2032CD9DB10BDDC02002001460129C8
:1013900006DB032904DC481E024A52F8200070478D
:1013A0000020FCE7880200200146012906DB032912
:1013B00004DC481E024A52F8200070470020FCE777
:1013C000A00200200421084841660848B0F9001036
:1013D000054881660548B0F902100348C16600213E
:1013E0000167416770470000DC0200204A000020CE
:1013F00000F0ACFA04E00120FFF7A2FE00F022F9B1
:10140000F9E7000070B505460C46012D04D0022D09
:101410000FD0032D27D119E02CB14FF4807119485A
:10142000FFF756F904E04FF480711648FFF74EF9C4
:101430001AE02CB14FF400611248FFF749F904E0BB
:101440004FF400610F48FFF741F90DE02CB14FF464
:1014500080410C48FFF73CF904E04FF48041094813
:10146000FFF734F900E000BF00BF012D09DB032DB9
:1014700007DC0CB9012200E00022681E024941F895
:10148000202070BD00100240AC02002010B50024E6
:10149000FFF7D0FD00BF14E00C4850F824100C30CA
:1014A00050F82400814205D8611CC8B20021FFF722
:1014B000A9FF04E0611CC8B20121FFF7A3FF601C73
:1014C000C4B2032CE8DB00F04DF910BD8802002007
:1014D0001CB501211020FFF7F7F94FF6807000903E
:1014E00001208DF8040000208DF8060002208DF800
:1014F000050001208DF8070069460448FFF77BF8D6
:101500004FF680710148FFF7E3F81CBD0010024060
:1015100070B500244A48807800064949C97800EB34
:1015200001404749097900EB0120454949794518AF
:10153000434844780F2C5AD00BDC0F2C7DD2DFE8C7
:1015400004F07C25313D4955606C7C7C7C26323E24
:101550004A00182C40D009DCA4F1100008286CD2F5
:10156000DFE800F0505C6B6B6B16222E1B2C56D004
:1015700004DC192C3CD01A2C5FD144E0292C02D079
:101580003D2C5AD155E0FFF71DFE57E000BF00BFCC
:101590000A2094FBF0F0401CC6B22946304600F009
:1015A000CFF84BE000BF00BF0A2094FBF0F0401CD6
:1015B000C6B26942304600F0C3F83FE000BF00BF4A
:1015C0000A2094FBF0F0401CC6B2A9B2304600F0ED
:1015D0005DF933E000BF00BF0A2094FBF0F0401C2F
:1015E000C6B22946304600F09FF827E000BF00BF92
:1015F0000A2094FBF0F0401CC6B2304600F05EF9C1
:101600001CE000BF00BF0A2094FBF0F0401CC6B2F3
:101610002946304600F064F900BF00BF00BF0A2031
:1016200094FBF0F0401CC6B22946304600F03AF96F
:1016300000BF2846FFF7DEFD00BF00BF00BF70BD42
:10164000C001002010B586B02A480078401C294906
:1016500008702948007808B900F04EF9254800784C
:101660000A2845DB25482449097800EB4110C06968
:101670002249214A127801EB421189691F4A1E4B07
:101680001B7802EB431252691C4B1B4C247803EB72
:1016900044131B69CDE90132CDE9031017481649FF
:1016A000097800EB4110C06800901448124C24786F
:1016B00000EB4410836811480F4C247800EB441071
:1016C00042680E480C4C247800EB441001680CA0D2
:1016D000FEF7D0FD08480078401C0749087008460E
:1016E0000078052801DB00200870002001490870FF
:1016F00006B010BD2D0000202C000020DC020020D0
:101700002325642C25642C25642C25642C25642C2D
:1017100025642C25642C2564000000000149087014
:10172000704700002E000020012805DB032803DCA1
:10173000421E024B43F82210704700009402002022
:1017400010B501280ADB032808DC421E044B53F8BD
:1017500022205418421E0C3343F8224010BD0000D2
:101760008802002070B50025002481E0611CC8B209
:10177000FFF71AFE00B970BD404850F824100C3035
:1017800050F8240081426FD000203D4908553B4865
:10179000183050F824503B4850F82400A8421BD27F
:1017A000601C012804D0022808D0032812D10BE0C5
:1017B0004FF400713448FEF78BFF0CE04FF480517A
:1017C0003148FEF785FF06E04FF400412E48FEF752
:1017D0007FFF00E000BF3EE02A4850F82400A84206
:1017E00021D3284850F82400690088421BD2601C8D
:1017F000012804D0022808D0032812D10BE04FF4AE
:1018000000712148FEF762FF0CE04FF480511E4842
:10181000FEF75CFF06E04FF400411B48FEF756FF61
:1018200000E000BF17E00020164941F824001348EB
:10183000243050F8240038B1104850F82400401CDF
:101840000E4941F8240006E00C4850F82400401EE0
:101850000A4941F824000B4850F82400401C09496B
:1018600041F8240003E0FFE7012005490855641C06
:10187000032CFFF47BAF00BF7DE70000880200204F
:1018800021000020D002002000100240012805DBCA
:10189000032803DC421E024B43F82210704700006D
:1018A000A0020020012805DB032803DC421E024BB6
:1018B00043F8221070470000C402002001280BDB0F
:1018C000032809DC0022411E044B43F82120002399
:1018D000024A0C3242F82130704700008802002092
:1018E000012805DB032803DC421E024B43F82210CB
:1018F00070470000B802002010B500200CE07B21EA
:10190000114A02EB4012116040F241110E4A02EB03
:101910004012D161411CC8B20528F0DBFFF70AFD77
:10192000FFF750FDFFF7DCFC00240AE0064901EB5D
:101930004410FFF7DBFB044901EB44118861601C94
:10194000C4B2052CF2DB10BDDC02002010B5A820CB
:10195000FFF7D8FB4FF4E13000F028F84FF41650B1
:10196000FEF7BAFEFEF72AFFFFF7B2FD42F2CF0103
:101970000920FFF71FF942F210710120FFF7B0FFB5
:1019800042F210710220FFF7ABFF42F21071032008
:10199000FFF7A6FF10BD70B50446049DA81A5E1A95
:1019A000B0FBF6F0661A00FB062070BD10B588B0DB
:1019B000044601210846FEF787FF01211020FEF7AB
:1019C000A3FF072209212548FEF75DFE07220A2111
:1019D0002248FEF758FE4FF4C060069002208DF8B2
:1019E0001C0003208DF81D0000208DF81E00012032
:1019F0008DF81F0006A91948FEF7FDFD029400208E
:101A0000ADF80C00ADF80E00ADF81000ADF8140004
:101A10000C20ADF8120002A91148FFF76BFA012162
:101A20000F48FFF7FFF940210D48FFF7E3F90122C6
:101A300040F225510A48FFF738FA25208DF80400B6
:101A400003208DF805008DF8060001208DF80700B1
:101A500001A8FEF7FBFE08B010BD00000000024028
:101A6000001001404FF04070E1EE100A7047000096
:101A7000901A00080000002080000000C401000847
:101A8000101B000880000020B00D0000E0010008DD
:101A90000000000001020304010203040607080914
:101AA0000000000000000000000000000000000036
:101AB0000000000000000000000000000000000026
:101AC0000000000000000000000000000000000016
:101AD0000000000000000000000000000000000006
:101AE00000000000000000000000000000000000F6
:101AF00000000000000000000000000000000000E6
:101B000000000000000000000000000000000000D5
:040000050800018965
:00000001FF
