:020000040800F2
:100000009011002031020008310B0008810800081F
:100010002D0B0008E9040008A713000800000000E9
:10002000000000000000000000000000F90C0008C3
:100030003106000800000000AD0B0008510E00085A
:100040004B0200084B0200084B0200084B0200085C
:100050004B0200084B020008950600084B020008FE
:100060004B0200084B0200084B0200084B0200083C
:100070004B0200084B0200084B0200084B0200082C
:100080004B0200084B0200084B0200084B0200081C
:100090004B0200084B0200084B0200084B0200080C
:1000A0004B0200084B0200084B0200084B020008FC
:1000B0004B020008BD0E00084B0200084B0200086E
:1000C0004B0200084B0200084B0200084B020008DC
:1000D0004B02000849100008B51000083D11000847
:1000E0004B0200084B0200084B0200084B020008BC
:1000F0004B0200084B0200084B0200084B020008AC
:100100004B0200084B0200084B0200084B0200089B
:100110004B0200084B0200084B0200084B0200088B
:100120004B0200084B0200084B0200084B0200087B
:100130004B0200084B0200084B0200084B0200086B
:100140004B0200084B0200084B0200084B0200085B
:100150004B0200084B0200084B0200084B0200084B
:100160004B0200084B0200084B0200084B0200083B
:100170004B0200084B0200084B0200084B0200082B
:100180004B0200084B02000800F002F800F041F8B2
:100190000AA090E8000C82448344AAF10107DA45E2
:1001A00001D100F036F8AFF2090EBAE80F0013F0F3
:1001B000010F18BFFB1A43F001031847F420000099
:1001C00014210000103A24BF78C878C1FAD8520729
:1001D00024BF30C830C144BF04680C6070470000C1
:1001E0000023002400250026103A28BF78C1FBD840
:1001F000520728BF30C148BF0B607047642900F028
:100200007980002070471FB502F04CF81FBD10B573
:1002100010BD00F037F91146FFF7F5FF01F058FB6C
:1002200000F055F903B4FFF7F2FF03BC01F0BDF88D
:100230000948804709480047FEE7FEE7FEE7FEE77A
:10024000FEE7FEE7FEE7FEE7FEE7FEE704480549B6
:10025000054A064B70470000550E0008890100084A
:10026000900B002090110020900D0020900D002098
:10027000704700000FB4044910B503AA029800F0BB
:10028000D3F810BC5DF814FB140000202DE9F041F8
:100290000E460446002020622046E168884730B3BD
:1002A000252805D0D4E901219047206A401CF2E7B7
:1002B000E168204600278847050018D0A5F14100D5
:1002C000192802D820354FF40067324629462046C7
:1002D0002760FFF793FF40B1012804D0F61D26F0F8
:1002E00007060836D8E7361DD6E72846DAE7206A3B
:1002F000BDE8F0812DE9F04106460024106875291B
:10030000314616A510D0AFF30080002802DA404233
:1003100013A507E031688A0701D512A502E0490755
:1003200004D511A5012401E0AFF3008000210A22C9
:1003300006F1240709E0B0FBF2FCB0FBF2F302FB8C
:100340001C00303078541846491C0028F3D123464D
:100350002A463046BDE8F04100F00CB8000000002D
:100360002D0000002B0000002000000070477047A7
:10037000704770472DE9F0470D469946924604466E
:1003800000F124080168880604D5E06921F0100115
:10039000216000E00120A84201DD471B00E00027AA
:1003A000A1697A1902EB0900081AA0612078C00639
:1003B00002D42046AFF30080002608E0D4E90121F2
:1003C0001AF806009047206A401C761C20624E45B1
:1003D000F4DB2078C0060AD52046AFF3008006E0A3
:1003E000D4E9012130209047206A401C2062381E49
:1003F000A7F10107F4DC07E0D4E9012118F80500B2
:100400009047206A401C2062281EA5F10105F3DCFC
:100410002046AFF300802078000602D50220BDE818
:10042000F0870120FBE70000074B70B50D467B44C9
:1004300000F011F80446284600F020F810B14FF003
:10044000FF3070BD204670BD4713000001694A1C93
:1004500002610878704700B58FB0CDE90131002105
:10046000059105497944CDE9031011466846FFF727
:100470000DFF0FB000BD0000E5FFFFFF007B00F0A7
:1004800080007047754600F02BF8AE4605006946BF
:10049000534620F00700854618B020B5FFF7D6FE7A
:1004A000BDE820404FF000064FF000074FF0000875
:1004B0004FF0000B21F00701AC46ACE8C009ACE8F6
:1004C000C009ACE8C009ACE8C0098D46704710B55A
:1004D0000446AFF300802046BDE81040FFF7A2BEFF
:1004E00000487047300B002000BFFEE736490A780D
:1004F0000978491C344B19703449885409785529B6
:1005000003D000211A46117070472F4909780B2932
:1005100000DAF9E72D494978503909294ED2DFE848
:1005200001F0050D151D252D353D45002849274AAB
:10053000921C13680B6052684A603FE02549234AC9
:10054000921C13680B6052684A6037E022491F4AC8
:10055000921C13680B6052684A602FE01F491B4AC7
:10056000921C13680B6052684A6027E01C49174AC6
:10057000921C13680B6052684A601FE01949134AC5
:10058000921C13680B6052684A6017E016490F4AC4
:10059000921C13680B6052684A600FE013490B4AC3
:1005A000921C13680B6052684A6007E01049074AC2
:1005B000921C13680B6052684A6000BF00BF0021A4
:1005C000014A117000BF9FE78C000020F806002050
:1005D000420000204A000020520000205A00002063
:1005E000620000206A000020740000207C000020CF
:1005F0008400002010B504460B4801780078401CA8
:10060000094A10700948445410460078022809D15C
:1006100006494A78097802EB012001F04BFB0020E3
:100620000149087010BD00008F000020340A00202E
:10063000704700001CB50121084600F0B9FA1020EF
:10064000009001208DF8040000208DF806000220A3
:100650008DF8050001208DF8070069460B4800F071
:1006600097F80121022000F0A3FA01200090002059
:100670008DF8040003208DF8050001208DF8070097
:100680006946034800F084F81CBD000000000240E9
:100690000004024010B501F08DFA012000F028F8A6
:1006A00010BD0EB50121880300F0A2FA002101203F
:1006B00000F024FB0120009000208DF804000820A9
:1006C0008DF8050001208DF80600684600F016F848
:1006D00006208DF8080000208DF8090002208DF812
:1006E0000A0001208DF80B0002A800F023FA0EBDCD
:1006F0000149086070470000143C01400021234973
:100700008279002A3AD00A46126803689A430B4657
:100710001A600A1D126803689A430B1D1A60027959
:1007200011440A6803681A430A60184A08321268BA
:1007300003689A43154B08331A601A1D1268036840
:100740009A43124B0C331A604279102A0ED11A1FA9
:10075000126803681A430D4B08331A601A1D126899
:1007600003681A43094B0C331A600DE007494279BC
:1007700011440A6803681A430A6005E002791144CB
:100780000A6803689A430A6070470000003C014011
:10079000F0B50A4600210023002400BF3DE00125FA
:1007A00005FA01F3156805EA03049C4234D1056893
:1007B0004F000326BE40B543056015794E00B54095
:1007C0000668354305601579012D02D01579022D93
:1007D00016D185684F000326BE40B5438560557924
:1007E0004E00B540866835438560456801268E40D9
:1007F000B5434560456896798E40B6B2354345604D
:10080000C5684F000326BE40B543C560D5794E008C
:10081000B540C6683543C560491C1029BFD3F0BD3B
:10082000F0B5002300244D07ED0E02FA05F3CE10BB
:1008300000F1200555F826504E07F70E0F26BE4052
:10084000B543CF1000F1200646F82750CE1000F136
:10085000200555F8265045EA0304CE1000F1200586
:1008600045F82640F0BD0246002013690B400BB14D
:10087000012000E0002070474183704701837047EA
:1008800000BFFEE710B588B004460121334800F0F0
:100890009FF90420069002208DF81C0003208DF89B
:1008A0001D0000208DF81E0001208DF81F0006A9F4
:1008B0002B48FFF76DFF0820069002208DF81C00E2
:1008C00003208DF81D0000208DF81E0001208DF8FA
:1008D0001F0006A92248FFF75BFF072202212048DC
:1008E000FFF79EFF072203211D48FFF799FF02949F
:1008F0000020ADF80C00ADF80E00ADF81000ADF81A
:1009000014000C20ADF8120002A9164800F0D8FC23
:10091000002240F22771134800F0ADFC012240F2A2
:100920002551104800F0A7FC40210E4800F048FC7B
:1009300001210C4800F05CFC26208DF80400012009
:100940008DF8050008208DF8060001208DF80700BD
:1009500001A800F0EFF808B010BD0000010002008F
:10096000000002400044004010B588B00446012158
:10097000334800F02DF94FF48060069002208DF886
:100980001C0003208DF81D0000208DF81E000120A2
:100990008DF81F0006A92B48FFF7FAFE4FF4006000
:1009A000069002208DF81C0003208DF81D00002009
:1009B0008DF81E0001208DF81F0006A92148FFF7C1
:1009C000E7FE07220A211F48FFF72AFF07220B2113
:1009D0001C48FFF725FF02940020ADF80C00ADF88D
:1009E0000E00ADF81000ADF814000C20ADF81200A8
:1009F00002A9154800F064FC002240F22771124859
:100A000000F039FC012240F225510F4800F033FC80
:100A100040210D4800F0D4FB01210B4800F0E8FB19
:100A200027208DF8040003208DF805008DF80600BE
:100A300001208DF8070001A800F07CF808B010BD77
:100A40000200040000040240004800400148007811
:100A500070470000900000201CB50121084600F0FE
:100A6000A7F8C020009001208DF8040000208DF828
:100A7000060002208DF8050001208DF80700694668
:100A80000348FFF785FEC0210148FFF7F7FE1CBDB4
:100A90000000024010B504460F480068A04209D388
:100AA0000D480068B0EB440F04D280210B48FFF7DB
:100AB000E5FE0BE008480068B0EB440F06D3802148
:100AC0000648FFF7D9FE0020034908600248006885
:100AD000401C0149086010BD2000002000000240B9
:100AE00010B504460F480068A04209D30D480068BD
:100AF000B0EB440F04D240210B48FFF7BFFE0BE0E0
:100B000008480068B0EB440F06D340210648FFF7C1
:100B1000B3FE00200349086002480068401C0149F8
:100B2000086010BD1C0000200000024000BFFEE76E
:100B30007047000070B5002100230F22C4781CB359
:100B4000174C246804F4E064C4F5E064C4F307219E
:100B5000C1F10404E3B20A4144789C40E1B28478D4
:100B6000144021430C07210E0E4C05786155047882
:100B700004F01F050124AC4005786D11AD0005F1AE
:100B8000E025C5F8004109E0047804F01F050124C0
:100B9000AC40054D0678761145F8264070BD000042
:100BA0000CED00E000E400E080E100E070470000B0
:100BB00029B1064A12680243044B1A6004E0034A52
:100BC00012688243014B1A607047000030380240BF
:100BD00029B1064A12680243044B1A6004E0034A32
:100BE00012688243014B1A6070470000403802408F
:100BF00029B1064A12680243044B1A6004E0034A12
:100C000012688243014B1A6070470000443802406A
:100C1000F0B5002100220024022500260223324FD5
:100C20003F6807F00C0121B1042905D0082937D10C
:100C300005E02E4F076036E02D4F076033E02A4F66
:100C40003F1F3F68C7F38056274F3F1F3F6807F09D
:100C50003F036EB1264FB7FBF3F7DFF88CC0ACF162
:100C6000040CDCF800C0CCF3881C07FB0CF40CE08F
:100C70001E4FB7FBF3F7DFF870C0ACF1040CDCF8E3
:100C800000C0CCF3881C07FB0CF4174F3F1F3F68D4
:100C9000C7F301477F1C7D00B4FBF5F7076002E056
:100CA000124F076000BF00BF0F4F3F6807F0F00111
:100CB0000909104F7A5C0768D74047600A4F3F68C0
:100CC00007F4E051890A0B4F7A5C4768D740876088
:100CD000054F3F6807F46041490B064F7A5C47684F
:100CE000D740C760F0BD0000083802400024F4007F
:100CF00000127A00000000207047000030B500228A
:100D00008B071C0F0F2303FA04F20B4B8C1053F8C4
:100D100024309343084C8D1044F8253023468C1022
:100D200053F824308C07240F00FA04F42343024CB8
:100D30008D1044F8253030BD083801400CB5002036
:100D4000019000903448006840F4803032490860D7
:100D500000BF3148006800F4003000900198401C4A
:100D60000190009818B90198B0F5A04FF1D12A4828
:100D7000006800F4003010B10120009001E0002074
:100D800000900098012846D123484030006840F088
:100D900080502149403108602048006840F44040BC
:100DA0001E4908601C48083000681B49083108606B
:100DB0000846006840F4004008600846006840F4B7
:100DC000A05008601648091F0860081F006840F01E
:100DD0008070091F086000BF0F48006800F00070B5
:100DE0000028F9D040F205700E4908600A48083022
:100DF000006820F0030008490831086008460068D0
:100E000040F00200086000BF03480830006800F0AE
:100E10000C000828F8D10CBD0038024000700040DA
:100E200008544007003C0240042808D14FF0E0215C
:100E3000096941F004014FF0E022116107E04FF031
:100E4000E021096921F004014FF0E02211617047AF
:100E50007047000010B51548006840F47000134951
:100E600008601348006840F0010011490860002044
:100E70000F49083108600E4800680E4908400C49C7
:100E800008600D48091D0860081F006820F48020D4
:100E9000091F0860002006490C310860FFF74EFF6B
:100EA0004FF0006001498039086010BD88ED00E016
:100EB00000380240FFFFF6FE1030002410B501217B
:100EC000054800F048F8012801D100F0A1F80121FF
:100ED000014800F031F810BD000400407FB5054620
:100EE0000C4601210220FFF773FE0295ADF8044085
:100EF0000020ADF80600ADF80C0001A90D4800F087
:100F000045F8012211460B4800F036F80121094846
:100F100000F015F81D208DF8000001208DF801006B
:100F200003208DF8020001208DF803006846FFF7CA
:100F300001FE7FBD00040040CA430282704721B118
:100F4000028842F00102028004E002884FF6FE733C
:100F50001A400280704730B502460020002300246A
:100F6000158A05EA0103958905EA010413B10CB15C
:100F7000012000E0002030BD1AB183890B4383813A
:100F800002E083898B43838170470000002202883E
:100F9000184B98420ED0184B98420BD0B0F1804FAE
:100FA00008D0164B984205D0154B984202D0154BED
:100FB000984204D14FF68F731A404B881A43124B54
:100FC000984207D0114B984204D04FF6FF431A4085
:100FD0000B891A4302804B68C3620B880385054B5B
:100FE000984202D0044B984201D18B7A03860123A8
:100FF000838270470000014000040140000400406B
:1010000000080040000C00400010004000140040A8
:1010100010B50C480068401C0A4908600846006882
:10102000B0F57A7F01D300F065FF002000F048FEA4
:1010300040F6C410FFF754FD00F0BAF900F0CEFC02
:1010400010BD00003000002010B540F225511648B8
:1010500000F0E7F838B3144800F09CF9C4B2232C30
:1010600002D10020114908701148104909784454F0
:101070000078232817D10E48C079212808D10B48C1
:101080000078072804D100F0F5FC0020074908701B
:1010900006480078401C0549087008460078082872
:1010A00001DB0020087010BD001001401A00002074
:1010B000D801002010B540F227711C4800F0B1F8AB
:1010C000E0B11B4802780078401C194B1870194891
:1010D000815C164800F063F940F22771134800F074
:1010E00078F81348007814490978884217D100220B
:1010F00040F227710D4800F0BEF810E040F2255193
:101100000A4800F08EF850B10849091D0988C8B294
:10111000FFF7ECF940F22551044800F05AF84FF47B
:101120005871024800F055F810BD0000004400401E
:1011300040000020F80500204100002010B540F2DA
:1011400027711B4800F06DF8D8B11A480278007872
:10115000401C184B18701848815C154800F01FF9A6
:1011600040F22771124800F034F812480078134911
:101170000978884205D1002240F227710C4800F01E
:101180007AF840F225510A4800F04BF850B108496E
:10119000091D0988C8B2FFF72DFA40F2255104480D
:1011A00000F017F84FF45871014800F012F810BD24
:1011B000004800408D000020340900208E000020EF
:1011C00001F40072B2F5007F00D100BFCA43028073
:1011D000704710B50022002340F66A14A14200D1E6
:1011E00000BF0A1201249440A3B2DC43048010BD66
:1011F00021B1828942F40052828104E082894DF655
:10120000FF731A408281704702460020B1F5007FCB
:1012100000D100BF13880B400BB1012000E000207B
:10122000704770B50246002400230025002040F6D8
:101230006A16B14200D100BFC1F3421501F01F038D
:10124000012606FA03F3012D02D19689334006E008
:10125000022D02D1168A334001E0968A33400C12E7
:10126000012606FA04F41688344013B10CB10120AB
:1012700000E0002070BDF0B50346002400260025E4
:10128000002040F66A17B94200D100BF1846C1F3EA
:10129000421401F01F06012707FA06F5012C01D1BF
:1012A0000C3004E0022C01D1103000E014301AB1EF
:1012B00007682F43076002E00768AF430760F0BD8F
:1012C0002DE9FF4705460E460024A14600BFA04673
:1012D000B08900B100BF2C8A24F44054F088044344
:1012E0002C82AC8941F20C608443B0883189084378
:1012F000718908430443AC81AC8A24F44074B089FA
:101300000443AC826846FFF783FC2048854202D044
:101310001F48854202D1DDF80C9001E0DDF808900D
:10132000A88900F4004040B109EBC90000EB0910A6
:1013300031684900B0FBF1F707E009EBC90000EBA9
:10134000091031688900B0FBF1F76420B7FBF0F0B9
:1013500004012009642101FB1078A88900F40040F1
:1013600040B1322000EBC800B0FBF1F000F0070004
:10137000044308E0322000EB08106421B0FBF1F0D8
:1013800000F00F0004432C81BDE8FF8700100140EE
:101390000014014001468888C0F308007047C1F37B
:1013A00008028280704700BFFEE7014600BF704719
:1013B00070B500251DE0002417E005EB45000F493E
:1013C00001EB800050F82410681C00EB40000B4A31
:1013D00002EB800050F82400814204D3022000F088
:1013E0006FFC002070BD601CC4B2022CE5DB681CE1
:1013F000C5B2042DDFDB0120F4E700007C040020EF
:1014000010B5002400BF51E02A4850F824103C30A9
:1014100050F82400814208D2611C01EB410202EB2A
:10142000C101C8B200F04CFC0EE0224850F8241074
:10143000303050F82400814206D9611C01EB810153
:101440004906080E00F03CFC1A480C3050F82410F5
:10145000303050F8240081420FD216483C3050F80A
:101460002410303840F82410611C01EB810202EB9B
:10147000C101C8B200F024FC16E00E480C3050F850
:101480002410243050F8240081420DD9094830300E
:1014900050F82410243840F82410611C01EB41015D
:1014A0008906080E00F00CFC601CC4B2032CABDBF8
:1014B00010BD0000A002002001460022002002E032
:1014C0000B5C1A44401C0628FAD3104670470000F3
:1014D00010B504466FF00400FFF7A6FCE11704EB1B
:1014E0005171C1F3C701074A11701046007800EB33
:1014F0004001C1EBC0104FF6FF7101EAC000024984
:10150000088010BD100000201200002070B50446B5
:101510004FF4077094FBF0F0C6B24FF4077094FBE1
:10152000F0F100FB114085B205E04FF4077000F0C8
:101530002FF8701EC6B2002EF7D115B1284600F064
:1015400027F870BD0146114A12784A434FF0E02354
:101550005A6100229A611A46126942F001021A6128
:1015600000BF4FF0E022106900F001021AB100F450
:101570008032002AF5D04FF0E022126922F00102F9
:101580004FF0E0231A6100229A617047100000209A
:101590000146114A12884A434FF0E0235A61002263
:1015A0009A611A46126942F001021A6100BF4FF0B7
:1015B000E022106900F001021AB100F48032002A22
:1015C000F5D04FF0E022126922F001024FF0E02343
:1015D0001A6100229A6170471200002070B52DED4B
:1015E000048BFFF733FAE8B91F480068642805D276
:1015F0001D480068401C1C49086031E010211B4850
:10160000FFF73CF90F20FFF79DFF10211748FFF768
:1016100033F900F0CFFA0120154908700020124973
:1016200008601DE001211348FFF71DF9C0B900F063
:10163000B5F80546284600F024FD41EC190B9FED56
:101640000E0B53EC102B00F02FFD41EC180B00F0AB
:10165000EBFC0446204600F02DFB00F04BFC00BFE5
:10166000BDEC048B70BD000094000020000002401F
:101670009000002000040240C3F5285C8FC2C53FE3
:1016800030B5002410E0611CC8B2002100F0D2FB8C
:10169000611CC8B200F0E0F80546611CC8B22946DA
:1016A00000F014FB601CC4B2032CECDB30BD000066
:1016B000F8B505460026002459E0052D01D2002684
:1016C0004EE0052D10D30A2D0ED82A4850F82400DC
:1016D000009028480C3850F824300A22052128466A
:1016E00000F03BFC06463BE00A2D10D30F2D0ED830
:1016F00020480C3050F8240000901E4850F8243048
:101700000F220A21284600F028FC064628E00F2D6B
:1017100011D3142D0FD81748183050F8240000901A
:1017200014480C3050F8243014220F21284600F0C1
:1017300014FC064614E0142D11D3192D0FD80D48B2
:10174000243050F8240000900A48183050F8243013
:1017500019221421284600F000FC064600E000266D
:10176000611CC8B2314600F0B1FA601CC4B2032C4F
:10177000A3DBF8BD8804002070B504460D4600BF09
:1017800040210548FFF740FD0028F9D0E1B20248AA
:10179000FFF705FE204670BD0010014002480068BA
:1017A000C8214843704700003000002010B50521D3
:1017B0000848C0F8841000F00FF80649C1F8880006
:1017C00000210448C0F88C10C0F89010C0F89410A4
:1017D00010BD0000F40200200148007870470000AE
:1017E0003E0000200146012906DB032904DC481ED7
:1017F000024A52F8200070470020FCE7AC020020AB
:1018000010B5002423E0601C124901EB441148602C
:10181000611CC8B200F020F80E4901EB4411886049
:10182000611CC8B2FFF7DEFF0A4901EB4411C86032
:10183000611CC8B200F01EF8064901EB44110861B2
:101840000020044901EB44114861601CC4B2032C20
:10185000D9DB10BDF40200200146012906DB032973
:1018600004DC481E024A52F8200070470020FCE7C2
:10187000A00200200146012906DB032904DC481EE2
:10188000024A52F8200070470020FCE7B80200200E
:1018900004210C4841660C48B0F900000B49096866
:1018A000411A084881660848B0F9020007494968AA
:1018B000411A0448C1660548816802480167002151
:1018C00041677047F40200205A0000207004002095
:1018D00000F016FB09E0FFF781FE0120FFF716FE7E
:1018E00000F06EF90120FFF711FEF4E770B5054630
:1018F0000C46012D04D0022D0FD0032D27D119E065
:101900002CB14FF480711948FEF7B8FF04E04FF492
:1019100080711648FEF7B0FF1AE02CB14FF4006159
:101920001248FEF7ABFF04E04FF400610F48FEF7EA
:10193000A3FF0DE02CB14FF480410C48FEF79EFF51
:1019400004E04FF480410948FEF796FF00E000BF35
:1019500000BF012D09DB032D07DC0CB9012200E0DB
:101960000022681E024941F8202070BD001002408C
:10197000C402002070B505460C46012D04D0022D8E
:101980000DD0032D25D117E024B980211248FEF790
:1019900075FF03E080211048FEF76EFF1AE02CB9B6
:1019A0004FF480610C48FEF769FF04E04FF480615A
:1019B0000948FEF761FF0DE02CB94FF400510648CD
:1019C000FEF75CFF04E04FF400510348FEF754FFBC
:1019D00000E000BF00BF70BD0010024010B5002441
:1019E000FFF70EFD00BF14E00C4850F824100C3037
:1019F00050F82400814205D8611CC8B20021FFF7CD
:101A000075FF04E0611CC8B20121FFF76FFF601C85
:101A1000C4B2032CE8DB00F077F910BDA00200206F
:101A20001CB501211020FFF7C3F84FF6807000901D
:101A300001208DF8040000208DF8060002208DF8AA
:101A4000050001208DF8070069460948FEF7A0FE51
:101A50004FF680710648FEF711FF012404E0E0B262
:101A60000121FFF787FF641C032CF8DD1CBD00007B
:101A70000010024070B500244D48807800064C49A3
:101A8000C97800EB01404A49097900EB0120484937
:101A90004979451846484478102C68D00BDC102C46
:101AA0007ED2DFE804F08125313D4955636F8181A5
:101AB0008126323E4A56192C4CD009DCA4F1110083
:101AC000082871D2DFE800F05F70707016222E3A9D
:101AD0001F2C48D004DC1A2C4AD01B2C64D153E0B4
:101AE000292C02D03D2C5FD158E0FFF7C9FD5CE006
:101AF00000BF00BF0A2094FBF0F0401CC6B229468C
:101B0000304600F0EFF850E000BF00BF0A2094FB21
:101B1000F0F0401CC6B26942304600F0E3F844E001
:101B200000BF00BF0A2094FBF0F0401CC6B2A9B26F
:101B3000304600F07FF938E000BF00BF0A2094FB78
:101B4000F0F0401CC6B22946304600F0BFF82CE049
:101B500000BF00BF0A2094FBF0F0401CC6B2304624
:101B600000F080F921E000F097F81EE000BF00BF10
:101B70000A2094FBF0F0401CC6B22946304600F023
:101B800083F900BF00BF00BF0A2094FBF0F0401CA7
:101B9000C6B22946304600F059F900BF284600E099
:101BA00002E0FFF785FD00BF00BF00BF70BD000071
:101BB000D801002000200149086070473000002053
:101BC00010B586B02A480078401C29490870294879
:101BD000007808B900F064F9254800780A2845DB48
:101BE00025482449097800EB4110C0692249214A5F
:101BF000127801EB421189691F4A1E4B1B7802EBD8
:101C0000431252691C4B1B4C247803EB44131B6991
:101C1000CDE90132CDE9031017481649097800EBE8
:101C20004110C06800901448124C247800EB441016
:101C3000836811480F4C247800EB441042680E482A
:101C40000C4C247800EB441001680CA0FEF712FB4A
:101C500008480078401C07490870084600780528A5
:101C600001DB0020087000200149087006B010BD9B
:101C70003D0000203C000020F40200202325642CBD
:101C800025642C25642C25642C25642C25642C25A6
:101C9000642C2564000000000448B0F900000449E9
:101CA00008600248B0F90200486070475A000020FE
:101CB0007004002001498860704700007004002013
:101CC00001490870704700003E000020012805DB34
:101CD000032803DC421E024B43F822107047000029
:101CE000AC02002010B501280ADB032808DC421EE4
:101CF000044B53F822205418421E0C3343F8224060
:101D000010BD0000A002002070B50025002484E072
:101D1000611CC8B2FFF7AEFD00B970BD414850F874
:101D200024100C3050F82400814272D0C820FEF7F5
:101D3000B1FE00203C4908553A48183050F824506C
:101D40003A4850F82400A8421BD2601C012804D055
:101D5000022808D0032812D10BE04FF40071344858
:101D6000FEF78CFD0CE04FF480513148FEF786FD04
:101D700006E04FF400412E48FEF780FD00E000BF72
:101D80003EE02A4850F82400A84221D3274850F8C2
:101D90002400690088421BD2601C012804D002285C
:101DA00008D0032812D10BE04FF400712048FEF751
:101DB00063FD0CE04FF480511D48FEF75DFD06E029
:101DC0004FF400411A48FEF757FD00E000BF17E04E
:101DD0000020164941F824001248243050F824000D
:101DE00038B1104850F82400401C0E4941F8240036
:101DF00006E00C4850F82400401E0A4941F824002F
:101E00000A4850F82400401C084941F8240003E027
:101E1000FFE7012004490855641C032CFFF478AF48
:101E200000BF7AE7A002002025000020E802002081
:101E300000100240012805DB032803DC421E024B90
:101E400043F8221070470000B8020020012805DB8B
:101E5000032803DC421E024B43F8221070470000A7
:101E6000DC02002001280BDB032809DC0022411ED4
:101E7000044B43F821200023024A0C3242F821305F
:101E800070470000A0020020012805DB032803DCC6
:101E9000421E024B43F8221070470000D00200207F
:101EA00010B500200CE07B21114A02EB40121160BA
:101EB00040F241110E4A02EB4012D161411CC8B2FE
:101EC0000528F0DBFFF79CFCFFF7E2FCFFF76EFC58
:101ED00000240AE0064901EB4410FFF7EDFA04493B
:101EE00001EB44118861601CC4B2052CF2DB10BD0B
:101EF000F402002000200149087070479000002083
:101F000010B5A820FFF7E4FA4FF4E13000F030F804
:101F10004FF41650FEF7B6FC4FF41650FEF724FDB2
:101F2000FEF788FBFEF7BDFBFEF796FDFFF778FD99
:101F300042F2CF010120FEF7D1FF42F210710120E1
:101F4000FFF7A2FF42F210710220FFF79DFF42F25D
:101F500010710320FFF798FF10BD70B50446049D73
:101F6000A81A5E1AB0FBF6F0661A00FB062070BDD8
:101F700010B588B0044601210846FEF719FE01217C
:101F80001020FEF735FE072209212548FEF748FC00
:101F900007220A212248FEF743FC4FF4C060069056
:101FA00002208DF81C0003208DF81D0000208DF804
:101FB0001E0001208DF81F0006A91948FEF7E8FB56
:101FC00002940020ADF80C00ADF80E00ADF8100042
:101FD000ADF814000C20ADF8120002A91148FFF76B
:101FE0006FF901210F48FFF703F940210D48FFF772
:101FF000E7F8012240F225510A48FFF73CF9252075
:102000008DF8040003208DF805008DF806000120EE
:102010008DF8070001A8FEF78DFD08B010BD000087
:1020200000000240001001404FEA1153A3F5806305
:10203000D3F11E03A8BFD3F1200C08DB4FF0004200
:1020400042EAC12252EA505232FA03F07047094282
:102050000BD4102BC4BF0020704703F5787CBCF173
:10206000FF3F05D04FF0FF3070474FF00000704742
:1020700070B500F0C3F800BF49922480002070477B
:10208000F0E7B0FA80F310FA03F10AD0C3F11D03B0
:1020900003F580634FEA41504FEA035202EBD1212E
:1020A00070474FF000007047DFF848C170B51CEA78
:1020B000111E1EBF1CEA13159EEA0C0F95EA0C0FA9
:1020C00000F06F8081EA030423EA4C134EEAD47EC9
:1020D00021EA4C1141F4801143F48013AE44A1FB7A
:1020E000024CA0FB0365AEF17F7E361955EB0C0563
:1020F000A1FB034C4CF10003A0FB021C16EB0C06E9
:10210000654153F10003094218BF46F0010613F47C
:10211000007F0BD14FEA03314FEA0530340341EA27
:10212000155140EA16506FF003020AE04FEAC3214E
:102130004FEAC520F40241EA555140EA56506FF08B
:10214000020202EB2E4201EB025585EACE710AD063
:102150005FEA440C18BF24F0004450F1000041F144
:10216000000120EAD47040F2FE7C624500D270BDCE
:10217000A84214BF4FF080444FF04044002E08BFE7
:102180000024BEF1806FA8BFA1F1C041BDE870403E
:1021900080F282804FF0000001F1C04101F0004167
:1021A00070479EEA0C0F0CEA131518BF95EA0C0F46
:1021B00006D04FF0000081EA030E0EF0004170BD22
:1021C00000F01CF88900013E00F007B800F009B8E3
:1021D0004FEA430C5FEA5C5C08D081EA030100F03F
:1021E0005BB84FEA410C5FEA5C5CF6D14FF000004F
:1021F000014970470000FF070000F87F0EF1020E52
:102200002EF0030E5EF8046B364205D4012A43EB30
:10221000030515F5001F12D8012841EB010C1CF530
:10222000001F0CD80ED14FEAD17C15F5001F0CEB26
:102230004C0C0CF1020C08BF4CEBD37C04E04FF0CB
:10224000080C01E04FEAD37C0CEB4C0526FA05F6AE
:1022500006F00706B6F1040C06D20EEB860CBDE8BC
:1022600070404CF0010C6047DFE80CF0090B0202F3
:102270004FF000414FF00000A1F5002170BD19465C
:102280001046012851EB010418BFD4F5001484BF97
:10229000002001F0004170BD0808A0F500114FEAD0
:1022A000310170474FF04070E1EE100A70470000B6
:1022B000D02200080000002098000000C40100089F
:1022C0006823000898000020F8100000E0010008D2
:1022D00000000000010203040102030406070809CC
:1022E00000000000000000000000000000000000EE
:1022F00000000000000000000000000000000000DE
:1023000000000000000000000000000000000000CD
:1023100000000000000000000000000000000000BD
:1023200000000000000000000000000000000000AD
:10233000000000000000000000000000000000009D
:10234000000000000000000000000000000000008D
:10235000000000000000000000000000000000007D
:08236000000000000000000075
:040000050800018965
:00000001FF
