:020000040800F2
:10000000200A0020310200085D060008CD05000826
:1000100059060008E9040008430D0008000000002C
:10002000000000000000000000000000250800089B
:10003000ED04000800000000D90600083D09000892
:100040004B0200084B0200084B0200084B0200085C
:100050004B0200084B0200084B0200084B0200084C
:100060004B0200084B0200084B0200084B0200083C
:100070004B0200084B0200084B0200084B0200082C
:100080004B0200084B0200084B0200084B0200081C
:100090004B0200084B0200084B0200084B0200080C
:1000A0004B0200084B0200084B0200084B020008FC
:1000B0004B020008A90900084B0200084B02000887
:1000C0004B0200084B0200084B0200084B020008DC
:1000D0004B0200080D0B00084B0200084B02000801
:1000E0004B0200084B0200084B0200084B020008BC
:1000F0004B0200084B0200084B0200084B020008AC
:100100004B0200084B0200084B0200084B0200089B
:100110004B0200084B0200084B0200084B0200088B
:100120004B0200084B0200084B0200084B0200087B
:100130004B0200084B0200084B0200084B0200086B
:100140004B0200084B0200084B0200084B0200085B
:100150004B0200084B0200084B0200084B0200084B
:100160004B0200084B0200084B0200084B0200083B
:100170004B0200084B0200084B0200084B0200082B
:100180004B0200084B02000800F002F800F041F8B2
:100190000AA090E8000C82448344AAF10107DA45E2
:1001A00001D100F036F8AFF2090EBAE80F0013F0F3
:1001B000010F18BFFB1A43F001031847E8120000B3
:1001C00008130000103A24BF78C878C1FAD8520743
:1001D00024BF30C830C144BF04680C6070470000C1
:1001E0000023002400250026103A28BF78C1FBD840
:1001F000520728BF30C148BF0B607047642900F028
:100200007980002070471FB501F046F91FBD10B579
:1002100010BD00F037F91146FFF7F5FF00F0B2FE10
:1002200000F055F903B4FFF7F2FF03BC00F08BFDBB
:100230000948804709480047FEE7FEE7FEE7FEE77A
:10024000FEE7FEE7FEE7FEE7FEE7FEE704480549B6
:10025000054A064B70470000410900088901000863
:1002600020040020200A0020200600202006002074
:10027000704700000FB4044910B503AA029800F0BB
:10028000D3F810BC5DF814FB140000202DE9F041F8
:100290000E460446002020622046E168884730B3BD
:1002A000252805D0D4E901219047206A401CF2E7B7
:1002B000E168204600278847050018D0A5F14100D5
:1002C000192802D820354FF40067324629462046C7
:1002D0002760FFF793FF40B1012804D0F61D26F0F8
:1002E00007060836D8E7361DD6E72846DAE7206A3B
:1002F000BDE8F0812DE9F04106460024106875291B
:10030000314616A510D0AFF30080002802DA404233
:1003100013A507E031688A0701D512A502E0490755
:1003200004D511A5012401E0AFF3008000210A22C9
:1003300006F1240709E0B0FBF2FCB0FBF2F302FB8C
:100340001C00303078541846491C0028F3D123464D
:100350002A463046BDE8F04100F00CB8000000002D
:100360002D0000002B0000002000000070477047A7
:10037000704770472DE9F0470D469946924604466E
:1003800000F124080168880604D5E06921F0100115
:10039000216000E00120A84201DD471B00E00027AA
:1003A000A1697A1902EB0900081AA0612078C00639
:1003B00002D42046AFF30080002608E0D4E90121F2
:1003C0001AF806009047206A401C761C20624E45B1
:1003D000F4DB2078C0060AD52046AFF3008006E0A3
:1003E000D4E9012130209047206A401C2062381E49
:1003F000A7F10107F4DC07E0D4E9012118F80500B2
:100400009047206A401C2062281EA5F10105F3DCFC
:100410002046AFF300802078000602D50220BDE818
:10042000F0870120FBE70000074B70B50D467B44C9
:1004300000F011F80446284600F020F810B14FF003
:10044000FF3070BD204670BD470A000001694A1C9C
:1004500002610878704700B58FB0CDE90131002105
:10046000059105497944CDE9031011466846FFF727
:100470000DFF0FB000BD0000E5FFFFFF007B00F0A7
:1004800080007047754600F02BF8AE4605006946BF
:10049000534620F00700854618B020B5FFF7D6FE7A
:1004A000BDE820404FF000064FF000074FF0000875
:1004B0004FF0000B21F00701AC46ACE8C009ACE8F6
:1004C000C009ACE8C009ACE8C0098D46704710B55A
:1004D0000446AFF300802046BDE81040FFF7A2BEFF
:1004E00000487047C003002000BFFEE77047F0B52A
:1004F0000A4600210023002400BF3DE0012505FA43
:1005000001F3156805EA03049C4234D105684F00E5
:100510000326BE40B543056015794E00B540066818
:10052000354305601579012D02D01579022D16D1BC
:1005300085684F000326BE40B543856055794E005F
:10054000B540866835438560456801268E40B543D1
:100550004560456896798E40B6B235434560C568BA
:100560004F000326BE40B543C560D5794E00B54067
:10057000C6683543C560491C1029BFD3F0BDF0B52E
:10058000002300244D07ED0E02FA05F3CE1000F112
:10059000200555F826504E07F70E0F26BE40B543EE
:1005A000CF1000F1200646F82750CE1000F12005AC
:1005B00055F8265045EA0304CE1000F1200545F811
:1005C0002640F0BD418370470183704700BFFEE7BE
:1005D0001CB50121084600F081F8C02000900120E0
:1005E0008DF8040000208DF8060002208DF805002B
:1005F00001208DF8070069460348FFF778FFC02106
:100600000148FFF7E1FF1CBD0000024010B5104893
:100610000068B0F5FA7F09D30D480068B0F57A7F1D
:1006200004D240210B48FFF7CFFF0BE008480068D9
:10063000B0F57A7F06D340210648FFF7C3FF0020BC
:100640000349086002480068401C0149086010BD69
:100650001C0000200000024000BFFEE770470000C1
:1006600070B5002100230F22C4781CB3174C2468F6
:1006700004F4E064C4F5E064C4F30721C1F10404A8
:10068000E3B20A4144789C40E1B2847814402143AB
:100690000C07210E0E4C05786155047804F01F05F7
:1006A0000124AC4005786D11AD0005F1E025C5F8D9
:1006B000004109E0047804F01F050124AC40054D19
:1006C0000678761145F8264070BD00000CED00E07C
:1006D00000E400E080E100E07047000029B1064A34
:1006E00012680243044B1A6004E0034A1268824312
:1006F000014B1A60704700003038024029B1064AA9
:1007000012680243044B1A6004E0034A12688243F1
:10071000014B1A60704700004038024029B1064A78
:1007200012680243044B1A6004E0034A12688243D1
:10073000014B1A607047000044380240F0B50021B8
:1007400000220024022500260223324F3F6807F0D2
:100750000C0121B1042905D0082937D105E02E4F1D
:10076000076036E02D4F076033E02A4F3F1F3F6898
:10077000C7F38056274F3F1F3F6807F03F036EB116
:10078000264FB7FBF3F7DFF88CC0ACF1040CDCF8B4
:1007900000C0CCF3881C07FB0CF40CE01E4FB7FB29
:1007A000F3F7DFF870C0ACF1040CDCF800C0CCF358
:1007B000881C07FB0CF4174F3F1F3F68C7F3014726
:1007C0007F1C7D00B4FBF5F7076002E0124F076065
:1007D00000BF00BF0F4F3F6807F0F0010909104F3D
:1007E0007A5C0768D74047600A4F3F6807F4E051DA
:1007F000890A0B4F7A5C4768D7408760054F3F688E
:1008000007F46041490B064F7A5C4768D740C760E0
:10081000F0BD0000083802400024F40000127A0005
:1008200000000020704700000CB5002001900090EF
:100830003448006840F480303249086000BF3148D5
:10084000006800F4003000900198401C019000986E
:1008500018B90198B0F5A04FF1D12A48006800F40A
:10086000003010B10120009001E0002000900098BD
:10087000012846D123484030006840F0805021498B
:10088000403108602048006840F440401E4908603C
:100890001C48083000681B49083108600846006899
:1008A00040F4004008600846006840F4A05008602A
:1008B0001648091F0860081F006840F08070091F73
:1008C000086000BF0F48006800F000700028F9D0F1
:1008D00040F205700E4908600A480830006820F0B0
:1008E00003000849083108600846006840F002002B
:1008F000086000BF03480830006800F00C000828BA
:10090000F8D10CBD00380240007000400854400788
:10091000003C0240042808D14FF0E021096941F071
:1009200004014FF0E022116107E04FF0E021096976
:1009300021F004014FF0E022116170477047000080
:1009400010B51548006840F470001349086013485A
:10095000006840F001001149086000200F4908318B
:1009600008600E4800680E4908400C4908600D48B0
:10097000091D0860081F006820F48020091F086016
:10098000002006490C310860FFF74EFF4FF0006071
:1009900001498039086010BD88ED00E00038024050
:1009A000FFFFF6FE1030002410B50121054800F0CD
:1009B00048F8012801D100F0A1F80121014800F018
:1009C00031F810BD000400407FB505460C460121FA
:1009D0000220FFF793FE0295ADF804400020ADF829
:1009E0000600ADF80C0001A90D4800F045F8012201
:1009F00011460B4800F036F80121094800F015F8BF
:100A00001D208DF8000001208DF8010003208DF8D5
:100A1000020001208DF803006846FFF721FE7FBD2C
:100A200000040040CA430282704721B1028842F0AC
:100A30000102028004E002884FF6FE731A40028031
:100A4000704730B50246002000230024158A05EACD
:100A50000103958905EA010413B10CB1012000E0FE
:100A6000002030BD1AB183890B43838102E0838962
:100A70008B4383817047000000220288184B984204
:100A80000ED0184B98420BD0B0F1804F08D0164BC7
:100A9000984205D0154B984202D0154B984204D18C
:100AA0004FF68F731A404B881A43124B984207D067
:100AB000114B984204D04FF6FF431A400B891A435A
:100AC00002804B68C3620B880385054B984202D0B5
:100AD000044B984201D18B7A0386012383827047AD
:100AE00000000140000401400004004000080040F4
:100AF000000C0040001000400014004010B5FFF74B
:100B000085FD00F06BFA00F00FFB10BD10B540F250
:100B10002551164800F052F838B3144800F008F98F
:100B2000C4B2232C02D10020114908701148104989
:100B3000097844540078232817D10E48C079212819
:100B400008D10B480078072804D100F089FA00206A
:100B50000749087006480078401C05490870084697
:100B60000078082801DB0020087010BD001001404B
:100B70001A0000206401002001F40072B2F5007F29
:100B800000D100BFCA430280704721B1828942F47C
:100B90000052828104E082894DF6FF731A408281FF
:100BA000704702460020B1F5007F00D100BF1388D6
:100BB0000B400BB1012000E00020704770B50246E9
:100BC000002400230025002040F66A16B14200D11F
:100BD00000BFC1F3421501F01F03012606FA03F31B
:100BE000012D02D19689334006E0022D02D1168AEA
:100BF000334001E0968A33400C12012606FA04F4D1
:100C00001688344013B10CB1012000E0002070BD03
:100C1000F0B50346002400260025002040F66A17A0
:100C2000B94200D100BF1846C1F3421401F01F06BB
:100C3000012707FA06F5012C01D10C3004E0022C43
:100C400001D1103000E014301AB107682F4307605B
:100C500002E00768AF430760F0BD00002DE9FF47E1
:100C600005460E460024A14600BFA046B08900B14B
:100C700000BF2C8A24F44054F08804432C82AC89B1
:100C800041F20C608443B08831890843718908437C
:100C90000443AC81AC8A24F44074B0890443AC8230
:100CA0006846FFF74BFD2048854202D01F48854229
:100CB00002D1DDF80C9001E0DDF80890A88900F47D
:100CC000004040B109EBC90000EB09103168490050
:100CD000B0FBF1F707E009EBC90000EB0910316840
:100CE0008900B0FBF1F76420B7FBF0F004012009A4
:100CF000642101FB1078A88900F4004040B1322043
:100D000000EBC800B0FBF1F000F00700044308E07E
:100D1000322000EB08106421B0FBF1F000F00F006E
:100D200004432C81BDE8FF870010014000140140FE
:100D300001468888C0F308007047C1F3080282802A
:100D4000704700BFFEE7014600BF7047002000BFAC
:100D500020E0124951F82020303151F820108A4209
:100D600007D20E49303151F82020303941F8202087
:100D70000EE00A4951F82020243151F820108A420F
:100D800006D90649243151F82020243941F8202081
:100D9000411CC8B20328DCDB704700003802002089
:100DA00001460022002002E00B5C1A44401C062889
:100DB000FAD310467047000010B504466FF00400E7
:100DC000FFF7A8FDE11704EB5171C1F3C701074A12
:100DD00011701046007800EB4001C1EBC0104FF6D7
:100DE000FF7101EAC0000249088010BD1000002018
:100DF0001200002070B504464FF4077094FBF0F029
:100E0000C6B24FF4077094FBF0F100FB114085B2BD
:100E100005E04FF4077000F009F8701EC6B2002E0E
:100E2000F7D115B1284600F001F870BD0146114A0E
:100E300012884A434FF0E0235A6100229A611A4611
:100E4000126942F001021A6100BF4FF0E0221069FE
:100E500000F001021AB100F48032002AF5D04FF000
:100E6000E022126922F001024FF0E0231A61002211
:100E70009A6170471200002070B504460D4600BF0D
:100E800040210548FFF78DFE0028F9D0E1B2024865
:100E9000FFF753FF204670BD0010014005210748B1
:100EA000C0F884100121C0F888100021C0F88C100F
:100EB000C0F89010C0F89410704700008002002025
:100EC0000146012906DB032904DC481E024A52F8C8
:100ED000200070470020FCE73802002010B50024F5
:100EE00023E0601C124901EB44114860611CC8B248
:100EF00000F020F80E4901EB44118860611CC8B273
:100F0000FFF7DEFF0A4901EB4411C860611CC8B25B
:100F100000F01EF8064901EB441108610020044965
:100F200001EB44114861601CC4B2032CD9DB10BD35
:100F3000800200200146012906DB032904DC481E4B
:100F4000024A52F8200070470020FCE72C020020E3
:100F50000146012906DB032904DC481E024A52F837
:100F6000200070470020FCE74402002004210448D0
:100F7000416600218166C1660167416770470000D4
:100F80008002002000BF00F019FA03E04FF4FA706D
:100F9000FFF730FFFAE70000012804D0022805D04F
:100FA00003280BD106E00B4A116008E0094A0C3215
:100FB000116004E0074A1832116000E000BF00BF72
:100FC000012805DB032803DC421E034B43F82210F3
:100FD00070470000A00242425002002010B50024D9
:100FE000FFF7B4FE00BF14E00C4850F824100C309A
:100FF00050F82400814205D8611CC8B20021FFF7D7
:10100000CBFF04E0611CC8B20121FFF7C5FF601CE3
:10101000C4B2032CE8DB00F011F910BD2C02002053
:101020001CB501211020FFF759FB4FF6807000908E
:1010300001208DF8040000208DF8060002208DF8B4
:10104000050001208DF8070069460448FFF74FFAB4
:101050004FF680710148FFF7B7FA1CBD001002403F
:1010600070B500242F48807800062E49C97800EB1F
:1010700001402C49097900EB01202A49497945189A
:10108000284844781A2C49D2DFE804F0480D192585
:10109000313D48484848480E1A26323E484848489C
:1010A000480F1B27333F00BF00BF0A2094FBF0F01E
:1010B000401CC6B22946304600F0AEF82FE000BF13
:1010C00000BF0A2094FBF0F0401CC6B269423046D3
:1010D00000F0A2F823E000BF00BF0A2094FBF0F06C
:1010E000401CC6B2A9B2304600F020F917E000BF9C
:1010F00000BF0A2094FBF0F0401CC6B229463046DF
:1011000000F07EF80BE000BF00BF0A2094FBF0F077
:10111000401CC6B2304600F015F900E000BF00BF29
:1011200070BD00006401002010B586B02A48007828
:10113000401C294908702948007808B900F014F9C2
:10114000254800780A2845DB25482449097800EB22
:101150004110C0692249214A127801EB4211896984
:101160001F4A1E4B1B7802EB431252691C4B1B4C4F
:10117000247803EB44131B69CDE90132CDE9031058
:1011800017481649097800EB4110C06800901448D0
:10119000124C247800EB4410836811480F4C2478DB
:1011A00000EB441042680E480C4C247800EB4410CD
:1011B00001680CA0FFF75EF808480078401C07495A
:1011C000087008460078052801DB00200870002020
:1011D0000149087006B010BD210000202000002049
:1011E000800200202325642C25642C25642C256492
:1011F0002C25642C25642C25642C2564000000001B
:10120000012805DB032803DC421E024B43F82210B1
:10121000704700003802002010B501280ADB0328BF
:1012200008DC421E044B53F822205418421E0C3393
:1012300043F8224010BD00002C02002000210020B5
:101240006BE0374A52F820300C3252F8202093429B
:1012500062D0334A183252F82010324A52F8202015
:101260008A4217D2421C012A04D0022A06D0032A3D
:101270000ED108E001222C4B1A600AE001222A4B11
:101280000C331A6005E00122274B18331A6000E086
:1012900000BF3AE0234A52F820208A421DD3214A57
:1012A00052F820204B009A4217D2421C012A04D047
:1012B000022A06D0032A0ED108E000221A4B1A6037
:1012C0000AE00022184B0C331A6005E00022164B8E
:1012D00018331A6000E000BF17E00022114B43F8FA
:1012E00020200F4A243252F820203AB10C4A52F8FA
:1012F0002020521C0A4B43F8202006E0084A52F8EE
:101300002020521E064B43F82020064A52F8202087
:10131000521C044B43F82020401C032891D37047F3
:101320002C02002074020020A4024242012805DBA6
:10133000032803DC421E024B43F8221070470000D2
:101340004402002001280BDB032809DC0022411E97
:10135000044B43F821200023024A0C3242F821308A
:10136000704700002C02002010B500200CE07B210B
:10137000114A02EB4012116040F241110E4A02EB99
:101380004012D161411CC8B20528F0DBFFF7A6FD71
:10139000FFF7ECFDFFF782FD00240AE0064901EBB0
:1013A0004410FFF7FDFC044901EB44118861601C07
:1013B000C4B2052CF2DB10BD8002002010B5A820BD
:1013C000FFF7FAFC4FF4E13000F00AF8FFF700F9FC
:1013D000FFF726FE42F2CF010920FFF7F5FA10BD14
:1013E00010B588B0044601210846FFF777F90121BE
:1013F0001020FFF793F9072209212548FFF7BFF8CE
:1014000007220A212248FFF7BAF84FF4C06006907D
:1014100002208DF81C0003208DF81D0000208DF89F
:101420001E0001208DF81F0006A91948FFF75FF87C
:1014300002940020ADF80C00ADF80E00ADF81000DD
:10144000ADF814000C20ADF8120002A91148FFF706
:1014500005FC01210F48FFF798FB40210D48FFF7DD
:101460008BFB012240F225510A48FFF7D1FB2520D2
:101470008DF8040003208DF805008DF8060001208A
:101480008DF8070001A8FFF7EBF808B010BD0000C9
:1014900000000240001001404FF04070E1EE100AE1
:1014A00070470000C4140008000000202400000061
:1014B000C4010008E814000824000020FC09000012
:1014C000E00100080000000001020304010203041F
:1014D00006070809000000000000000000000000EE
:0814E000000000000000000004
:040000050800018965
:00000001FF
