:020000040800F2
:10000000B824002031020008390E0008DD0800087D
:10001000350E0008E9040008271900080000000058
:10002000000000000000000000000000A91000080F
:1000300031060008000000001D0F00080112000832
:100040004B0200084B0200084B0200084B0200085C
:100050004B0200084B020008350600084B0200085E
:100060004B0200084B0200084B0200084B0200083C
:100070004B0200084B0200084B0200084B0200082C
:100080004B0200084B0200084B0200084B0200081C
:100090004B0200084B0200084B0200084B0200080C
:1000A0004B0200084B0200084B0200084B020008FC
:1000B0004B0200086D1200084B0200084B020008BA
:1000C0004B0200084B0200084B0200084B020008DC
:1000D0004B020008C915000835160008BD160008B7
:1000E0004B0200084B0200084B0200084B020008BC
:1000F0004B0200084B0200084B0200084B020008AC
:100100004B0200084B0200084B0200084B0200089B
:100110004B0200084B0200084B0200084B0200088B
:100120004B0200084B0200084B0200084B0200087B
:100130004B0200084B0200084B0200084B0200086B
:100140004B0200084B0200084B0200084B0200085B
:100150004B0200084B0200084B0200084B0200084B
:100160004B0200084B0200084B0200084B0200083B
:100170004B0200084B0200084B0200084B0200082B
:100180004B0200084B02000800F002F800F041F8B2
:100190000AA090E8000C82448344AAF10107DA45E2
:1001A00001D100F036F8AFF2090EBAE80F0013F0F3
:1001B000010F18BFFB1A43F0010318477830000005
:1001C00098300000103A24BF78C878C1FAD8520796
:1001D00024BF30C830C144BF04680C6070470000C1
:1001E0000023002400250026103A28BF78C1FBD840
:1001F000520728BF30C148BF0B607047642900F028
:100200007980002070471FB503F00EF81FBD10B5B0
:1002100010BD00F037F91146FFF7F5FF01F0C8FEF9
:1002200000F055F903B4FFF7F2FF03BC01F00CFC3A
:100230000948804709480047FEE7FEE7FEE7FEE77A
:10024000FEE7FEE7FEE7FEE7FEE7FEE704480549B6
:10025000054A064B70470000051200088901000896
:10026000B81E0020B8240020B8200020B8200020AC
:10027000704700000FB4044910B503AA029800F0BB
:10028000D3F810BC5DF814FB140000202DE9F041F8
:100290000E460446002020622046E168884730B3BD
:1002A000252805D0D4E901219047206A401CF2E7B7
:1002B000E168204600278847050018D0A5F14100D5
:1002C000192802D820354FF40067324629462046C7
:1002D0002760FFF793FF40B1012804D0F61D26F0F8
:1002E00007060836D8E7361DD6E72846DAE7206A3B
:1002F000BDE8F0812DE9F04106460024106875291B
:10030000314616A510D0AFF30080002802DA404233
:1003100013A507E031688A0701D512A502E0490755
:1003200004D511A5012401E0AFF3008000210A22C9
:1003300006F1240709E0B0FBF2FCB0FBF2F302FB8C
:100340001C00303078541846491C0028F3D123464D
:100350002A463046BDE8F04100F00CB8000000002D
:100360002D0000002B0000002000000070477047A7
:10037000704770472DE9F0470D469946924604466E
:1003800000F124080168880604D5E06921F0100115
:10039000216000E00120A84201DD471B00E00027AA
:1003A000A1697A1902EB0900081AA0612078C00639
:1003B00002D42046AFF30080002608E0D4E90121F2
:1003C0001AF806009047206A401C761C20624E45B1
:1003D000F4DB2078C0060AD52046AFF3008006E0A3
:1003E000D4E9012130209047206A401C2062381E49
:1003F000A7F10107F4DC07E0D4E9012118F80500B2
:100400009047206A401C2062281EA5F10105F3DCFC
:100410002046AFF300802078000602D50220BDE818
:10042000F0870120FBE70000074B70B50D467B44C9
:1004300000F011F80446284600F020F810B14FF003
:10044000FF3070BD204670BD9B19000001694A1C39
:1004500002610878704700B58FB0CDE90131002105
:10046000059105497944CDE9031011466846FFF727
:100470000DFF0FB000BD0000E5FFFFFF007B00F0A7
:1004800080007047754600F02BF8AE4605006946BF
:10049000534620F00700854618B020B5FFF7D6FE7A
:1004A000BDE820404FF000064FF000074FF0000875
:1004B0004FF0000B21F00701AC46ACE8C009ACE8F6
:1004C000C009ACE8C009ACE8C0098D46704710B55A
:1004D0000446AFF300802046BDE81040FFF7A2BEFF
:1004E00000487047581E002000BFFEE736490A78D2
:1004F0000978491C344B19703449885409785529B6
:1005000003D000211A46117070472F4909780B2932
:1005100000DAF9E72D494978503909294ED2DFE848
:1005200001F0050D151D252D353D45002849274AAB
:10053000921C13680B6052684A603FE02549234AC9
:10054000921C13680B6052684A6037E022491F4AC8
:10055000921C13680B6052684A602FE01F491B4AC7
:10056000921C13680B6052684A6027E01C49174AC6
:10057000921C13680B6052684A601FE01949134AC5
:10058000921C13680B6052684A6017E016490F4AC4
:10059000921C13680B6052684A600FE013490B4AC3
:1005A000921C13680B6052684A6007E01049074AC2
:1005B000921C13680B6052684A6000BF00BF0021A4
:1005C000014A117000BF9FE794000020201A00200C
:1005D0004A000020520000205A0000206200002043
:1005E0006A000020720000207C00002084000020AF
:1005F0008C00002010B504460B4801780078401CA0
:10060000094A10700948445410460078022809D15C
:1006100006494A78097802EB012001F083FE0020A8
:100620000149087010BD0000970000205C1D0020EB
:100630007047000070B52DED048B01F0EBFB38B175
:1006400000214FF0804000F046FF00F058F822E013
:100650004FF0804000F022FF054600214FF080401F
:1006600000F048FE284602F04EFB41EC190B9FEDCE
:100670000D0B53EC102B02F0ADFB41EC180B02F00C
:1006800015FB0446204601F04DFE00200749087086
:1006900000F00EF800BF012000F058F8BDEC048B0C
:1006A00070BD0000333333333333FB3F98000020F9
:1006B0000EB50121880300F063FC0021042000F046
:1006C000F5FC0120009000208DF8040008208DF832
:1006D000050001208DF80600684600F03DF8062070
:1006E0008DF8080000208DF8090002208DF80A001E
:1006F00001208DF80B0002A800F0A0FB0EBD0EB586
:100700000121880300F03CFC0021042000F0CEFC15
:100710000120009000208DF804000C208DF80500C9
:1007200001208DF80600684600F016F806208DF8C6
:10073000080000208DF8090002208DF80A00012031
:100740008DF80B0002A800F079FB0EBD014908608E
:1007500070470000143C0140002123498279002A9F
:100760003AD00A46126803689A430B461A600A1D7B
:10077000126803689A430B1D1A60027911440A68D3
:1007800003681A430A60184A0832126803689A43D9
:10079000154B08331A601A1D126803689A43124BEE
:1007A0000C331A604279102A0ED11A1F126803689E
:1007B0001A430D4B08331A601A1D126803681A4356
:1007C000094B0C331A600DE00749427911440A685D
:1007D00003681A430A6005E0027911440A68036855
:1007E0009A430A6070470000003C0140F0B50A4699
:1007F00000210023002400BF3DE0012505FA01F39C
:10080000156805EA03049C4234D105684F000326AD
:10081000BE40B543056015794E00B54006683543C6
:1008200005601579012D02D01579022D16D1856844
:100830004F000326BE40B543856055794E00B54054
:10084000866835438560456801268E40B54345601E
:10085000456896798E40B6B235434560C5684F000D
:100860000326BE40B543C560D5794E00B540C66885
:100870003543C560491C1029BFD3F0BDF0B5002336
:1008800000244D07ED0E02FA05F3CE1000F120050D
:1008900055F826504E07F70E0F26BE40B543CF1031
:1008A00000F1200646F82750CE1000F1200555F83B
:1008B000265045EA0304CE1000F1200545F82640F5
:1008C000F0BD0246002013690B400BB1012000E08F
:1008D00000207047418370470183704700BFFEE7E7
:1008E00010B500200F4908600F48006820F4402030
:1008F0000D4908600846006840F480200860002028
:100900000A49C1F8A402022001F014FA01200549A5
:100910000860022001F00EFA00200449C1F8A0028C
:1009200010BD0000A082404200040240008040420E
:100930001CB50121022000F0F3FA4FF44070009042
:1009400001208DF8040000208DF8060003208DF8AA
:10095000050001208DF8070069460548FFF746FFAE
:100960000120044908600449C1F8A4021CBD00002C
:1009700000040240A08240420080404210B50020A6
:100980000F4908600F48006820F440200D490860B6
:100990000846006840F48020086001200A49C1F838
:1009A000A402022001F0C6F90120054908600220D6
:1009B00001F0C0F900200449C1F8A00210BD0000F8
:1009C000A0824042000402400080404270B50546CB
:1009D00000241648006820F44020144908600846A6
:1009E00000680860002616E0002011490860022017
:1009F00001F0A0F901200F49C1F8A0026006040E21
:100A00000B487C38006808B1601CC4B2012001F0BA
:100A100091F9701CC6B2082EE6DB15B9FFF7AEFFE0
:100A200001E0FFF75DFF204670BD000000040240BA
:100A3000A08240420080404270B5044615480068DC
:100A400020F44020134908600846006840F48020E4
:100A50000860002010490860002517E0E0090E49F1
:100A6000091D08606006040E022001F063F90120F0
:100A70000A49C1F8A002022001F05CF900200649F1
:100A80000860022001F056F9681CC5B2082DE5DBAC
:100A900070BD000000040240A0824042008040423D
:100AA00010B50F48006820F440200D490860084642
:100AB000006840F48020086001200A4908600A4963
:100AC000C1F8A002042001F035F9002005490860B2
:100AD000042001F02FF900200349C1F8A00210BD45
:100AE00000040240A48240420080404210B50F48FA
:100AF000006820F440200D4908600846006840F472
:100B00008020086000200A4908600A49C1F8A40250
:100B1000042001F00FF90120054908600549C1F8DA
:100B2000A402042001F006F910BD000000040240F8
:100B3000A08240420080404210B500241348006863
:100B400020F4402011490860084600680860012030
:100B50000F49086001F0EEF801200E49C1F8A0022B
:100B600001F0E8F807E0601CC4B2FA2C03DDFFF7DF
:100B7000BDFF012010BD0648803800680028F2D172
:100B80000349091F086000BFF4E7000000040240A9
:100B9000A48240420080404210B588B00446012142
:100BA000334800F0CDF90420069002208DF81C0097
:100BB00003208DF81D0000208DF81E0001208DF807
:100BC0001F0006A92B48FFF711FE082006900220FF
:100BD0008DF81C0003208DF81D0000208DF81E00EC
:100BE00001208DF81F0006A92248FFF7FFFD07220C
:100BF00002212048FFF742FE072203211D48FFF78C
:100C00003DFE02940020ADF80C00ADF80E00ADF8EA
:100C10001000ADF814000C20ADF8120002A916481F
:100C200000F00EFE002240F22771134800F0E3FDB1
:100C3000012240F22551104800F0DDFD40210E4810
:100C400000F07EFD01210C4800F092FD26208DF879
:100C5000040001208DF8050002208DF80600012017
:100C60008DF8070001A800F0E9F808B010BD0000F9
:100C700001000200000002400044004010B588B0AE
:100C800004460121334800F05BF94FF48060069080
:100C900002208DF81C0003208DF81D0000208DF827
:100CA0001E0001208DF81F0006A92B48FFF79EFDAE
:100CB0004FF40060069002208DF81C0003208DF890
:100CC0001D0000208DF81E0001208DF81F0006A9D0
:100CD0002148FFF78BFD07220A211F48FFF7CEFDB1
:100CE00007220B211C48FFF7C9FD02940020ADF834
:100CF0000C00ADF80E00ADF81000ADF814000C209B
:100D0000ADF8120002A9154800F09AFD002240F249
:100D10002771124800F06FFD012240F225510F4863
:100D200000F069FD40210D4800F00AFD01210B484B
:100D300000F01EFD27208DF8040003208DF805002B
:100D40008DF8060001208DF8070001A800F076F864
:100D500008B010BD0200040000040240004800403A
:100D60001CB50121084600F0DBF8C02000900120EE
:100D70008DF8040000208DF8060002208DF8050093
:100D800001208DF8070069460348FFF72FFDC021B9
:100D90000148FFF7A1FD1CBD0000024010B504464C
:100DA0000F480068A04209D30D480068B0EB440F1B
:100DB00004D280210B48FFF78FFD0BE00848006844
:100DC000B0EB440F06D380210648FFF783FD0020D7
:100DD0000349086002480068401C0149086010BDD2
:100DE000200000200000024010B504460F480068B3
:100DF000A04209D30D480068B0EB440F04D2402153
:100E00000B48FFF769FD0BE008480068B0EB440FA2
:100E100006D340210648FFF75DFD00200349086026
:100E200002480068401C0149086010BD1C000020F9
:100E30000000024000BFFEE77047000070B50021CF
:100E400000230F22C4781CB3174C246804F4E06418
:100E5000C4F5E064C4F30721C1F10404E3B20A411C
:100E600044789C40E1B28478144021430C07210E61
:100E70000E4C05786155047804F01F050124AC4040
:100E800005786D11AD0005F1E025C5F8004109E0D8
:100E9000047804F01F050124AC40054D0678761156
:100EA00045F8264070BD00000CED00E000E400E0D5
:100EB00080E100E070B50446FFF7F2FD8020FFF707
:100EC000BBFDFFF739FE2046FFF7B6FDFFF734FE06
:100ED000FFF7E6FD8120FFF7AFFDFFF72DFE0020B5
:100EE000FFF774FD0546FFF701FE284670BD70B59B
:100EF00005460C46FFF7D4FD8020FFF79DFDFFF768
:100F00001BFE2846FFF798FDFFF716FE2046FFF769
:100F100093FDFFF711FEFFF7E9FD70BD704700007C
:100F200029B1064A12680243044B1A6004E0034ADE
:100F300012688243014B1A6070470000303802404B
:100F400029B1064A12680243044B1A6004E0034ABE
:100F500012688243014B1A6070470000403802401B
:100F600029B1064A12680243044B1A6004E0034A9E
:100F700012688243014B1A6070470000203802401B
:100F800029B1064A12680243044B1A6004E0034A7E
:100F900012688243014B1A607047000044380240D7
:100FA00029B1064A12680243044B1A6004E0034A5E
:100FB00012688243014B1A607047000024380240D7
:100FC000F0B5002100220024022500260223324F22
:100FD0003F6807F00C0121B1042905D0082937D159
:100FE00005E02E4F076036E02D4F076033E02A4FB3
:100FF0003F1F3F68C7F38056274F3F1F3F6807F0EA
:101000003F036EB1264FB7FBF3F7DFF88CC0ACF1AE
:10101000040CDCF800C0CCF3881C07FB0CF40CE0DB
:101020001E4FB7FBF3F7DFF870C0ACF1040CDCF82F
:1010300000C0CCF3881C07FB0CF4174F3F1F3F6820
:10104000C7F301477F1C7D00B4FBF5F7076002E0A2
:10105000124F076000BF00BF0F4F3F6807F0F0015D
:101060000909104F7A5C0768D74047600A4F3F680C
:1010700007F4E051890A0B4F7A5C4768D7408760D4
:10108000054F3F6807F46041490B064F7A5C47689B
:10109000D740C760F0BD0000083802400024F400CB
:1010A00000127A00000000207047000030B50022D6
:1010B0008B071C0F0F2303FA04F20B4B8C1053F811
:1010C00024309343084C8D1044F8253023468C106F
:1010D00053F824308C07240F00FA04F42343024C05
:1010E0008D1044F8253030BD083801400CB5002083
:1010F000019000903448006840F480303249086024
:1011000000BF3148006800F4003000900198401C96
:101110000190009818B90198B0F5A04FF1D12A4874
:10112000006800F4003010B10120009001E00020C0
:1011300000900098012846D123484030006840F0D4
:1011400080502149403108602048006840F4404008
:101150001E4908601C48083000681B4908310860B7
:101160000846006840F4004008600846006840F403
:10117000A05008601648091F0860081F006840F06A
:101180008070091F086000BF0F48006800F0007001
:101190000028F9D040F205700E4908600A4808306E
:1011A000006820F00300084908310860084600681C
:1011B00040F00200086000BF03480830006800F0FB
:1011C0000C000828F8D10CBD003802400070004027
:1011D00008544007003C0240042808D14FF0E021A9
:1011E000096941F004014FF0E022116107E04FF07E
:1011F000E021096921F004014FF0E02211617047FC
:101200007047000010B51548006840F4700013499D
:1012100008601348006840F0010011490860002090
:101220000F49083108600E4800680E4908400C4913
:1012300008600D48091D0860081F006820F4802020
:10124000091F0860002006490C310860FFF74EFFB7
:101250004FF0006001498039086010BD88ED00E062
:1012600000380240FFFFF6FE1030002410B50121C7
:10127000054800F016F9012801D100F071F90121AB
:10128000014800F034F810BD000400407FB5054669
:101290000C4601210220FFF753FE0295ADF80440F1
:1012A0000020ADF80600ADF80C0001A90D4800F0D3
:1012B00015F9012211460B4800F004F901210948F3
:1012C00000F018F81D208DF8000001208DF80100B5
:1012D00003208DF8020001208DF803006846FFF717
:1012E000ADFD7FBD00040040CA4302827047CA437F
:1012F0000282704721B1028842F00102028004E0BC
:1013000002884FF6FE731A400280704710B50446FB
:101310005548844208D101210846FFF741FE0021CB
:101320000120FFF73DFE9DE0B4F1804F08D101217F
:101330000846FFF715FE00210120FFF711FE91E09E
:101340004A48844208D101210220FFF709FE00210A
:101350000220FFF705FE85E04548844208D10121BF
:101360000420FFF7FDFD00210420FFF7F9FD79E0DF
:101370004048844208D101210820FFF7F1FD0021F7
:101380000820FFF7EDFD6DE03B48844208D10121C4
:101390001020FFF7E5FD00211020FFF7E1FD61E0DF
:1013A0003648844208D101212020FFF7D9FD0021D1
:1013B0002020FFF7D5FD55E03148844208D10121B6
:1013C0000220FFF7EDFD00210220FFF7E9FD49E0D3
:1013D0002C48844209D101210804FFF7E1FD0021D6
:1013E0004FF48030FFF7DCFD3CE02748844209D110
:1013F00001214804FFF7D4FD00214FF40030FFF72E
:10140000CFFD2FE02148844209D101218804FFF754
:10141000C7FD00214FF48020FFF7C2FD22E01C48E9
:10142000844208D101214020FFF79AFD002140208D
:10143000FFF796FD16E01748844208D1012180206D
:10144000FFF78EFD00218020FFF78AFD0AE0124899
:10145000844207D101218015FFF782FD0021A015EC
:10146000FFF77EFD10BD00000000014000040040B9
:1014700000080040000C0040001000400014004034
:101480000004014000400140004401400048014088
:1014900000180040001C0040002000400146486A3F
:1014A000704730B50246002000230024158A05EA63
:1014B0000103958905EA010413B10CB1012000E094
:1014C000002030BD1AB183890B43838102E08389F8
:1014D0008B4383817047416270470000002202887D
:1014E000184B98420ED0184B98420BD0B0F1804F59
:1014F00008D0164B984205D0154B984202D0154B98
:10150000984204D14FF68F731A404B881A43124BFE
:10151000984207D0114B984204D04FF6FF431A402F
:101520000B891A4302804B68C3620B880385054B05
:10153000984202D0044B984201D18B7A0386012352
:101540008382704700000140000401400004004015
:1015500000080040000C0040001000400014004053
:1015600010B5002000F0E4FE40F6C410FFF73CFC8C
:1015700000F072FB00F07EFD00F0BAFD10BD0EB56C
:1015800001210846FFF7DCFC4FF08040FFF7BEFE6C
:101590004FF6FF70019040F24730ADF80000002098
:1015A000ADF80800ADF8020069464FF08040FFF743
:1015B00095FF01218807FFF797FE00214FF080403B
:1015C000FFF798FE0EBD000010B540F225511648F9
:1015D00000F0E7F838B3144800F09CF9C4B2232CAB
:1015E00002D100201149087011481049097844546B
:1015F0000078232817D10E48C079212808D10B483C
:101600000078072804D100F055FD00200749087034
:1016100006480078401C05490870084600780828EC
:1016200001DB0020087010BD001001401A000020EE
:10163000DC01002010B540F227711C4800F0B1F821
:10164000E0B11B4802780078401C194B187019480B
:10165000815C164800F063F940F22771134800F0EE
:1016600078F81348007814490978884217D1002285
:1016700040F227710D4800F0BEF810E040F225510D
:101680000A4800F08EF850B10849091D0988C8B20F
:10169000FEF72CFF40F22551044800F05AF84FF4B1
:1016A0005871024800F055F810BD00000044004099
:1016B00048000020201900204900002010B540F209
:1016C00027711B4800F06DF8D8B11A4802780078ED
:1016D000401C184B18701848815C154800F01FF921
:1016E00040F22771124800F034F81248007813498C
:1016F0000978884205D1002240F227710C4800F099
:101700007AF840F225510A4800F04BF850B10849E8
:10171000091D0988C8B2FEF76DFF40F22551044843
:1017200000F017F84FF45871014800F012F810BD9E
:1017300000480040950000205C1C0020960000201E
:1017400001F40072B2F5007F00D100BFCA430280ED
:10175000704710B50022002340F66A14A14200D160
:1017600000BF0A1201249440A3B2DC43048010BDE0
:1017700021B1828942F40052828104E082894DF6CF
:10178000FF731A408281704702460020B1F5007F46
:1017900000D100BF13880B400BB1012000E00020F6
:1017A000704770B50246002400230025002040F653
:1017B0006A16B14200D100BFC1F3421501F01F0308
:1017C000012606FA03F3012D02D19689334006E083
:1017D000022D02D1168A334001E0968A33400C1262
:1017E000012606FA04F41688344013B10CB1012026
:1017F00000E0002070BDF0B503460024002600255F
:10180000002040F66A17B94200D100BF1846C1F364
:10181000421401F01F06012707FA06F5012C01D139
:101820000C3004E0022C01D1103000E014301AB169
:1018300007682F43076002E00768AF430760F0BD09
:101840002DE9FF4705460E460024A14600BFA046ED
:10185000B08900B100BF2C8A24F44054F0880443BE
:101860002C82AC8941F20C608443B08831890843F2
:10187000718908430443AC81AC8A24F44074B08974
:101880000443AC826846FFF79BFB2048854202D0A8
:101890001F48854202D1DDF80C9001E0DDF8089088
:1018A000A88900F4004040B109EBC90000EB091021
:1018B00031684900B0FBF1F707E009EBC90000EB24
:1018C000091031688900B0FBF1F76420B7FBF0F034
:1018D00004012009642101FB1078A88900F400406C
:1018E00040B1322000EBC800B0FBF1F000F007007F
:1018F000044308E0322000EB08106421B0FBF1F053
:1019000000F00F0004432C81BDE8FF870010014068
:101910000014014001468888C0F308007047C1F3F5
:1019200008028280704700BFFEE700000000000050
:101930002DE9F0412DED020B9FED3D0B2DED028BBE
:101940009FED3D8BDDE90254C4F30A50A0F2FF364F
:10195000142E37DA002E18DA53EC102B9DED020B03
:1019600051EC100B00F066FF53EC182B01F030FB2C
:1019700057D2002CA4BF0024254652DA24F00040A0
:10198000284318BF2E4C4CD01AE02E4820FA06F7F8
:1019900004EA070028431FD053EC102B9DED020BE7
:1019A00051EC100B00F046FF53EC182B01F010FB2C
:1019B00037D2002C03DA4FF48010F0400444BC43CB
:1019C00000252EE0332E07DCA6F114004FF0FF3186
:1019D00021FA00F73D4206D19DED020BBDEC028BD2
:1019E00002B0BDE8F08153EC102B9DED020B51ECE1
:1019F000100B01F023FB53EC182B01F0E9FA10D285
:101A0000002C0DDA142E08BF641C09D0C6F1340076
:101A1000012101FA00F02844A84238BF641C0546A1
:101A2000BD43CDE902549DED020BD7E70000000055
:101A30009C7500883CE4377E000000000000000038
:101A40000000F0BFFFFF0F00014600BF704700001D
:101A50001EB55C49097804290DD05B49B1F9001025
:101A6000584A1278594B43F8221056490978491CB4
:101A7000544A117013E0002107E0544B4A1C53F8FC
:101A8000222043F821204A1CD1B20429F5DB4E491B
:101A9000B1F900104B4A12784C4B43F82210012048
:101AA0004849095C042911D0474931F9101000EB6D
:101AB0008002464B03EB8202424B1B5C42F8231030
:101AC0004049095C491C3F4A115420E0002110E0C4
:101AD00000EB80023D4B03EB82034A1C53F82220AB
:101AE00000EB8003394C04EB830343F821204A1CAC
:101AF000D1B20429ECDB344931F9101000EB80023B
:101B0000324B03EB82022F4B1B5C42F82310022066
:101B10002C49095C042910D02D49896800EB80020A
:101B20002A4B03EB8202274B1B5C42F8231025490A
:101B3000095C491C234A11541FE0002110E000EB0E
:101B40008002224B03EB82034A1C53F8222000EB55
:101B500080031E4C04EB830343F821204A1CD1B2BE
:101B60000429ECDB1A49896800EB8002174B03EB70
:101B70008202144B1B5C42F823100021009101915A
:101B8000029100BF1BE000220DE001EB81030F4C2E
:101B900004EB830353F822305DF8214023444DF8D1
:101BA0002130531CDAB2052AEFDB5DF82120052332
:101BB00092FBF3F2074B43F821204A1CD1B20329D0
:101BC000E1DB1EBD27000020620000205C04002035
:101BD000440400205004002010B52DED0A8B04466B
:101BE000204601F0A7F841EC1C0B9FED130B53ECC2
:101BF000102B01F0EFF841EC1B0B9FED110B53EC98
:101C0000102B00F0CBFE41EC1A0B9FED0F0B53ECA9
:101C1000102B00F00FFE41EC190B9FED0D0B53EC58
:101C2000102B01F0D7F841EC180B01F00FF880B23F
:101C3000BDEC0A8B10BD0000000000000000F03F6A
:101C40000000000000805640000000000000E03F5F
:101C50009A9999999999694070B500251DE00024D9
:101C600017E005EB45000F4901EB800050F8241008
:101C7000681C00EB40000B4A02EB800050F8240087
:101C8000814204D3022000F053FB002070BD601C91
:101C9000C4B2032CE5DB681CC5B2042DDFDB0120D8
:101CA000F4E70000D805002001460022002002E0F1
:101CB0000B5C1A44401C0628FAD3104670470000FB
:101CC00010B504466FF00400FFF786FAE11704EB45
:101CD0005171C1F3C701074A11701046007800EB3B
:101CE0004001C1EBC0104FF6FF7101EAC00002498C
:101CF000088010BD100000201200002070B50446BE
:101D00004FF4077094FBF0F0C6B24FF4077094FBE9
:101D1000F0F100FB114085B205E04FF4077000F0D0
:101D20002FF8701EC6B2002EF7D115B1284600F06C
:101D300027F870BD0146114A12784A434FF0E0235C
:101D40005A6100229A611A46126942F001021A6130
:101D500000BF4FF0E022106900F001021AB100F458
:101D60008032002AF5D04FF0E022126922F0010201
:101D70004FF0E0231A6100229A61704710000020A2
:101D80000146114A12884A434FF0E0235A6100226B
:101D90009A611A46126942F001021A6100BF4FF0BF
:101DA000E022106900F001021AB100F48032002A2A
:101DB000F5D04FF0E022126922F001024FF0E0234B
:101DC0001A6100229A6170471200002070B5044623
:101DD0000D4600BF40210548FFF7D6FC0028F9D08A
:101DE000E1B20248FFF79BFD204670BD00100140A4
:101DF0000148007870470000340000200148007856
:101E0000704700003500002001480078704700004E
:101E10003800002010B501210148FEF752FD10BD29
:101E20000010024010B505210848C0F8841000F0E9
:101E30000FF80649C1F8880000210448C0F88C104A
:101E4000C0F89010C0F8941010BD000004030020EA
:101E500001480078704700002C000020014800680D
:101E60007047000030000020014880687047000083
:101E7000500400200146012906DB032904DC481E2A
:101E8000024A52F8200070470020FCE7B002002010
:101E900010B5002423E0601C124901EB4411486096
:101EA000611CC8B200F020F80E4901EB44118860B3
:101EB000611CC8B2FFF7DEFF0A4901EB4411C8609C
:101EC000611CC8B200F01EF8064901EB441108611C
:101ED0000020044901EB44114861601CC4B2032C8A
:101EE000D9DB10BD040300200146012906DB0329CC
:101EF00004DC481E024A52F8200070470020FCE72C
:101F0000A40200200146012906DB032904DC481E47
:101F1000024A52F8200070470020FCE7BC02002073
:101F20000648007838B10548407820B103488078E9
:101F300008B1012070470020FCE7000024000020C9
:101F400000B5042109484166FFF782FD00F010F852
:101F50000649886600F016F80449C866FFF784FF52
:101F60000249086700210148416700BD04030020C1
:101F70000248006802490968401A7047500400206E
:101F8000440400200248406802494968401A7047EA
:101F900050040020440400200148007870470000ED
:101FA0003600002001480068704700005C060020F1
:101FB00000F0C0FB02E0012000F046F9FBE7000062
:101FC00070B505460C46681E284951F8200020B11E
:101FD0000CB9012000E000200446012D04D0022DA0
:101FE0000FD0032D27D119E02CB14FF48071204878
:101FF000FEF772FC04E04FF480711D48FEF76AFCA6
:102000001AE02CB14FF400611948FEF765FC04E0BA
:102010004FF400611648FEF75DFC0DE02CB14FF463
:1020200080411348FEF758FC04E04FF4804110480B
:10203000FEF750FC00E000BF00BF681E0B4951F8DE
:10204000200020B10CB9012000E000200446012D41
:102050000ADB032D08DC0CB9012200E00022681E17
:102060000249243941F8202070BD0000EC02002014
:102070000010024010B5002400BF14E00C4850F8D6
:1020800024100C3050F82400814205D8611CC8B2DD
:102090000021FFF795FF04E0611CC8B20121FFF7A2
:1020A0008FFF601CC4B2032CE8DB00F059F910BDAF
:1020B000A402002070B500240C48807800060B496B
:1020C000C97800EB01400949097900EB0120074973
:1020D0004979451805484478E8B2FFF77DFD064682
:1020E00032460021204600F0DDF970BDDC01002001
:1020F00070B550480078002825D0FFF711FF18B3BD
:102100004D4800684D49096888421DD0002411E0FF
:1021100004EBC40202EB0413474A121D02EB8312C4
:10212000464B1B6852F82310621CD0B200F006F92F
:10213000601CC4B2032CEBDB00F05EFA3F48006881
:10214000401C3E49086073E03B4800683B49096811
:1021500088426DD8FFF7E4FE002869D0FFF74EFEF5
:1021600000283ED0FFF718FFB0B100240FE0611C3B
:10217000C8B2FFF7B9FE0546314A52F82420C5EB34
:102180004201621CD0B200F0D9F8601CC4B2032C2A
:10219000EDDB00F031FA12E0FFF704FF01280ED169
:1021A000002408E0264A52F82410621CD0B200F045
:1021B000C5F8601CC4B2032CF4DB00F01DFAFFF775
:1021C00023FE20490968884205D800201949087073
:1021D0001C4908600AE01B480068401C1949086057
:1021E00004E00020134908701649086000201349D4
:1021F000086010480078D8B9FFF7FAFDC0B1002494
:1022000014E0611CC8B2FFF76FFE01460C4850F89D
:102210002400814206D00A4A52F82410621CD0B22F
:1022200000F08CF800F0E8F9601CC4B2032CE8DB85
:1022300070BD00003C0000205C0600204000002033
:10224000E40500204400002030B585B004462B484A
:102250000078401C294908702948007808B900F026
:10226000A1F926480078A04245D326482449097898
:1022700000EB4110C0692349214A127801EB421159
:102280008969204A1E4B1B7802EB431252691D4B91
:102290001B4D2D7803EB45131B69CDE90132CDE9C8
:1022A000031018481649097800EB4110C0680090E7
:1022B0001448134D2D7800EB451083681148104DDC
:1022C0002D7800EB451042680E480D4D2D7800EB3F
:1022D000451001680CA0FDF7CDFF09480078401CAF
:1022E0000749087008460078052801DB00200870BF
:1022F00000200249087005B030BD00002B0000200E
:102300002A000020040300202325642C25642C25AA
:10231000642C25642C25642C25642C25642C2564D0
:10232000000000000149886070470000440400205C
:1023300001490870704700002C00002010B50346CA
:102340000C46012B09DB032B07DC1846FFF7DAFDEF
:1023500018B1581E014941F8204010BDB0020020BC
:1023600070B50025002484E0611CC8B2FFF7CAFDE7
:1023700000B970BD414850F824100C3050F82400CA
:10238000814272D0C820FEF709FD00203C49085563
:102390003A48183050F824503A4850F82400A842DF
:1023A0001BD2601C012804D0022808D0032812D1B7
:1023B0000BE04FF400713448FEF78EFA0CE04FF456
:1023C00080513148FEF788FA06E04FF400412E486C
:1023D000FEF782FA00E000BF3EE02A4850F82400F1
:1023E000A84221D3274850F82400690088421BD214
:1023F000601C012804D0022808D0032812D10BE069
:102400004FF400712048FEF765FA0CE04FF480515C
:102410001D48FEF75FFA06E04FF400411A48FEF748
:1024200059FA00E000BF17E00020164941F82400E7
:102430001248243050F8240038B1104850F82400D5
:10244000401C0E4941F8240006E00C4850F82400D6
:10245000401E0A4941F824000A4850F82400401C54
:10246000084941F8240003E0FFE70120044908552A
:10247000641C032CFFF478AF00BF7AE7A4020020AD
:1024800024000020F802002000100240012805DB93
:10249000032803DC421E024B43F822107047000061
:1024A000BC02002070B504460D461646E9B2A200F3
:1024B000921DD0B2FEF71BFD2912A200D21DD0B290
:1024C000FEF715FDF1B2A2000832D0B2FEF70FFD03
:1024D0003112A2000932D0B2FEF709FD70BD000032
:1024E0002DE9F0412DED068B0546280300F00BFC8D
:1024F00041EC1A0B9FED250B53EC102B00F06AFCFE
:1025000041EC190B53EC192B9FED220B51EC100BE6
:1025100000F044FA41EC180B9FED200B53EC102B0C
:1025200051EC180B00F086F941EC1A0BB0EE4A0A98
:10253000F0EE6A0AFFF7FCF9B0EE409AF0EE609A0E
:1025400051EC190B00F0B2FB401EC6B20020FEF7A2
:10255000B1FC044604F07F0040F01007394600202B
:10256000FEF7C5FC3146FE20FEF7C1FC21460020E7
:10257000FEF7BDFC0520FFF7C1FB44F0A1010020E0
:10258000FEF7B5FCBDEC068BBDE8F08148E17A149E
:10259000AE47ED3F0000000084D777410000000007
:1025A0000000E03F10B500200CE07B21114A02EB57
:1025B0004012116040F241110E4A02EB4012D1610B
:1025C000411CC8B20528F0DBFFF762FCFFF7B8FC3E
:1025D000FFF728FC00240AE0064901EB4410FFF74E
:1025E00063FB044901EB44118861601CC4B2052CF3
:1025F000F2DB10BD040300202DE9F047FFF72EFCAD
:10260000044600250027A1B20120FFF73FFF01206B
:10261000FFF76AFC06460120FFF72CFC864232D108
:10262000FFF71CFC05460220FFF75EFC0646022071
:10263000FFF720FC864203D1FFF710FC074666E057
:102640000220FFF751FC81460220FFF713FCA9EBA3
:102650000008B8F1000F01DB404601E0C8F10000BE
:1026600000FB05F90320FFF73FFC82460320FFF73C
:1026700001FCAAEB0006002E01DB304600E07042B0
:10268000B9FBF0F743E00120FFF72EFC8146012063
:10269000FFF7F0FBA9EB0008B8F1000F01DB4046A3
:1026A00001E0C8F1000000FB04F90220FFF71CFC68
:1026B00082460220FFF7DEFBAAEB0006002E01DBBC
:1026C000304600E07042B9FBF0F50120FFF70CFC4A
:1026D00081460120FFF7CEFBA9EB0008B8F1000FFF
:1026E00001DB404601E0C8F1000000FB04F90320D3
:1026F000FFF7FAFB82460320FFF7BCFBAAEB0006BC
:10270000002E01DB304600E07042B9FBF0F70A2CE6
:1027100000D20A240A2D00D20A250A2F00D20A2745
:10272000A9B20220FFF7B2FEB9B20320FFF7AEFE56
:10273000BDE8F08710B5A820FFF7C2FA4FF4165095
:1027400000F01CF84FF41650FEF726FA4FF416501E
:10275000FEF794FAFEF713FFFEF702FB42F2CF01F9
:102760000120FEF793FDFEF7E3F800210846FEF78F
:10277000BEFB3220FFF7B4FE10BD000010B588B0DC
:10278000044601210846FEF7CBFB01211020FEF78D
:10279000F7FB072209212548FEF770F807220A21D6
:1027A0002248FEF76BF84FF4C060069002208DF8C7
:1027B0001C0003208DF81D0000208DF81E00012054
:1027C0008DF81F0006A91948FEF710F802940020A2
:1027D000ADF80C00ADF80E00ADF81000ADF8140027
:1027E0000C20ADF8120002A91148FFF729F80121C9
:1027F0000F48FEF7BDFF40210D48FEF7A1FF012263
:1028000040F225510A48FEF7F6FF25208DF8040016
:1028100003208DF805008DF8060001208DF80700D3
:1028200001A8FEF70BFB08B010BD0000000002403D
:102830000010014010B591EA030F48BF83F0004338
:1028400000F11084841A71EB030C05D2121943EBCA
:102850000C03001B61EB0C01DFF824E14FEA11547B
:10286000A4EB135C1EEA430F18BF9EEA445F73D0CB
:1028700023EA0E03DCF1200E21EA045143F4801315
:1028800032D322FA0CFE10EB0E0023FA0CFE41EBC1
:102890000E01CCF1200E03FA0EFE10EB0E0051F1EA
:1028A0000001B1F5801FCCF1200E32D201EB0451B2
:1028B00012FA0EF2BDE8104058BF7047401C38BFF6
:1028C0005FEA420218BF7047002814BF20F00100E1
:1028D00041F100014FEA410313F5001F38BF704773
:1028E000A1F1C04100F06EBB012A43EB0302ACF141
:1028F000200CDCF11F0E32BF4FF0000E23FA0CF358
:1029000010EB030041EB0451B4EB115FD0D0A1EB0D
:10291000045101F5801149085FEA300001EB0451D0
:102920000ED350F1000038BF12FA0EFE08D1BDE8F8
:102930001040C9E7401C38BF5FEA4202CAD1C3E772
:10294000BDE810404FEA410313F5001F38BF704740
:10295000A1F1C04100F036BB9EEA445F08D011EA05
:102960005E0FBDE8104004BF01F000410020704739
:10297000BDE8104070B500F0D7FA00BF64FBBE3E62
:102980000000E0FF491058BFC1F140415B1058BF43
:10299000C3F140438B42EFF3008070472DE9C04103
:1029A00030B4DFF8A0C23CEA111418BF3CEA13149B
:1029B00000F0EC8081EA03051CEA111444EAD574A6
:1029C00018BF1CEA131500F0C780A4EB05044FF0F4
:1029D000004545EAC12145EAC32341EA505143EA93
:1029E000525304F17F74994204F500344FEAC02039
:1029F0004FEAC22208BF904200F09C804FEA136564
:102A00000FF24016765D4FEA134506FB05F7C7F156
:102A1000807706FB07F74FEAD737A7FB03687642B4
:102A2000C8F58038A7FB06CE38BFA8F1010807FB20
:102A300008E64FF0000EA6FB028CE6FB03CEDCF1AD
:102A4000000CCEF1004E38BFAEF1010EA6FB0C58C3
:102A50004FF000074FF00005E6FB0E87A1FB08C60C
:102A6000A0FB07CE16EB0E0645F10005E1FB07655E
:102A700015F1E04E7EBFA4F580345FEA46066D4155
:102A800016F1800745F100054FEA17274FEA066661
:102A900047EA0567A6F1DE46B6F1805F4FEA1525E5
:102AA0001FD9384624F0010C05EBC471BCF1FE6F50
:102AB00001EB0C1102D8F0BCBDE8008124425CBFE0
:102AC00001F5801E9EEAC47F02D4F0BCBDE80081FF
:102AD000244238D4F0BCA1F1C041BDE8004100F06F
:102AE00071BA4FEAD22242EA43524FEAD323A7FBFC
:102AF00002864FEAD02040EA415007FB03661EEAF7
:102B00000E0F4FEAD12105FB026658BFA6EB005617
:102B1000B6EB00564FEA520E4EEAC37E18EB0E0E8D
:102B200056EB530EBDD518EB02085E417F1C55F1E4
:102B30000005B6E74FF480154FF000074FF0000690
:102B40004FF00008ADE7F0BC4FF0000001F1C041CC
:102B500001F00041BDE8008111EA0C1F0CEA1315D9
:102B600000D00CE013EA0C1F00F025804FF00000AD
:102B7000F0BC81EA030101F00041BDE80081F0BC36
:102B8000BDE8004181EA030100F01CBAF0BCBDE8D9
:102B9000004170B500F0C8F9097EFC3E00F007B8AE
:102BA00081EA03014FF0000001F00041704781EA23
:102BB000030100F007BAF0BCBDE800414FF000008F
:102BC00021497047FFFDFBF9F7F5F4F2F0EEEDEB6C
:102BD000E9E8E6E4E3E1E0DEDDDBDAD8D7D5D4D31B
:102BE000D1D0CFCDCCCBCAC8C7C6C5C4C2C1C0BF67
:102BF000BEBDBCBBBAB9B8B7B6B5B4B3B2B1B0AF6D
:102C0000AEADACABAAA9A8A8A7A6A5A4A3A3A2A150
:102C1000A09F9F9E9D9C9C9B9A999998979796950B
:102C200095949393929191908F8F8E8E8D8C8C8BA7
:102C30008B8A89898888878786858584848383822F
:102C4000828181800000FF070000F87F4FEA410386
:102C50004FEA5353A3F58063D3F11E03C8BFD3F1EA
:102C6000210C0CDD4FF0004242EAC12242EA5052F0
:102C700032FA03FC8CEAE17CACEBE1707047102B7C
:102C8000C4BF0020704703F5787CBCF1FF3F04D03F
:102C90006FF0004282EA2100704770B500F044F9FD
:102CA0004992248000207047F2E700004FEA115358
:102CB000A3F58063D3F11E03A8BFD3F1200C08DB7A
:102CC0004FF0004242EAC12252EA505232FA03F077
:102CD000704709420BD4102BC4BF0020704703F586
:102CE000787CBCF1FF3F05D04FF0FF3070474FF0CC
:102CF0000000704770B500F017F900BF49922480BA
:102D000000207047F0E710F0004248BF4042B0FAA0
:102D100080F310FA03F10AD0C3F11D0303F58063B9
:102D20004FEA415002EB035202EBD12170474FF0C2
:102D300000007047B0FA80F310FA03F10AD0C3F133
:102D40001D0303F580634FEA41504FEA035202EB43
:102D5000D12170474FF000007047000051EA030C8A
:102D600017D41CF5801F58BFBCF5801F00F10680EA
:102D7000994218BF704708BF9042704707D711F5B6
:102D8000801F58BF13F5801F19D49942704789429C
:102D900070471CF5801F08D5BCF5801FF7D58B4206
:102DA00018BF704708BF824270474FF4001C1CEBED
:102DB000410F38BF1CEB430F01D28B42704770B5F7
:102DC00000F0B2F8922449004FF000514FF08053C8
:102DD000FFF7D8BDDFF848C170B51CEA111E1EBF51
:102DE0001CEA13159EEA0C0F95EA0C0F00F06F8099
:102DF00081EA030423EA4C134EEAD47E21EA4C1103
:102E000041F4801143F48013AE44A1FB024CA0FBBB
:102E10000365AEF17F7E361955EB0C05A1FB034C23
:102E20004CF10003A0FB021C16EB0C06654153F1AC
:102E30000003094218BF46F0010613F4007F0BD1CE
:102E40004FEA03314FEA0530340341EA155140EAB5
:102E500016506FF003020AE04FEAC3214FEAC52083
:102E6000F40241EA555140EA56506FF0020202EB7B
:102E70002E4201EB025585EACE710AD05FEA440C7E
:102E800018BF24F0004450F1000041F1000120EA95
:102E9000D47040F2FE7C624500D270BDA84214BFDF
:102EA0004FF080444FF04044002E08BF0024BEF194
:102EB000806FA8BFA1F1C041BDE8704080F2828060
:102EC0004FF0000001F1C04101F0004170479EEA5F
:102ED0000C0F0CEA131518BF95EA0C0F06D04FF033
:102EE000000081EA030E0EF0004170BD00F01CF8F6
:102EF0008900013E00F007B800F009B84FEA430C22
:102F00005FEA5C5C08D081EA030100F05BB84FEA3D
:102F1000410C5FEA5C5CF6D14FF00000014970475C
:102F20000000FF070000F87F0EF1020E2EF0030EE6
:102F30005EF8046B364205D4012A43EB030515F510
:102F4000001F12D8012841EB010C1CF5001F0CD802
:102F50000ED14FEAD17C15F5001F0CEB4C0C0CF197
:102F6000020C08BF4CEBD37C04E04FF0080C01E0EE
:102F70004FEAD37C0CEB4C0526FA05F606F0070663
:102F8000B6F1040C06D20EEB860CBDE870404CF096
:102F9000010C6047DFE80CF0090B02024FF0004122
:102FA0004FF00000A1F5002170BD19461046012820
:102FB00051EB010418BFD4F5001484BF002001F0C8
:102FC000004170BD0808A0F500114FEA31017047BB
:102FD00053EA010C17D41CF5801F58BFBCF5801FA5
:102FE00000F106808B4218BF704708BF82427047CD
:102FF00007D713F5801F58BF11F5801F19D48B42D6
:1030000070479B4270471CF5801F08D5BCF5801F98
:10301000F7D5994218BF704708BF904270474FF4E8
:10302000001C1CEB430F38BF1CEB410F01D299422F
:1030300070470FB40CBC03BCFFF7C1BE91EA030F8D
:1030400010B581F000413FF5FDAB83F0004300F087
:1030500009B8000010B591EA030F48BF83F00043A0
:103060003FF5F0AB841A71EB030C07D212198CF008
:10307000004C43EB0C03001B61EB0C01DFF8A4E1F7
:103080004FEA1154A4EB135C1EEA430F18BF9EEAEB
:10309000445F00F0B08023EA6E03524221EA0451FB
:1030A000C3EB6E0338BF5B1EDCF1200E25D322FA82
:1030B0000CFE10EB0E0043FA0CFE41EB0E01CCF1BE
:1030C000200E03FA0EFE10EB0E0051F10001CCF1C0
:1030D000200E29D412FA0EF201EB0451BDE8104083
:1030E00058BF7047401C1CBFB2F1004F704700280A
:1030F0000CBF491C20F00100704712EB020E43EB9D
:10310000030218BF4FF0010E4EEA4202ACF1200C50
:10311000DCF11E0E54D943FA0CFE10EB0E0051F1F7
:10312000FF31CCF11E0ED5D50EF1010E12FA0EFEB6
:10313000404141EB010101EB445C5FEA5C5C10D96A
:1031400010EBDE7001EB045138BFBEF1004FBDE85B
:10315000104018BF704700280CBF491C20F0010028
:10316000704730D24FEAD42C11F5001124F40064DA
:103170001BD0B1FA81F20B3AA41AA41ED2F120039B
:10318000914030FA03F31943904001EBCC71002CCD
:1031900001EB0451BDE81040A8BF704701F1C041E8
:1031A0004FF0000001F000417047B0FA80F310FAD0
:1031B00003F100D110BDE41A173C4805C90AE4E741
:1031C00001EB045110BD491001EB0451BDE8104062
:1031D0004FEA300002E04FF0000170474A0008BF9C
:1031E0000042F8D0B2F5001F28BF704701F000413F
:1031F0004FF0000070479EEA445F07D011EA5E0F6F
:10320000BDE8104004BF002100207047BDE8104019
:1032100070B5FFF789FE00BF40DFF63E83F0004146
:10322000104670470000E0FF4FF04070E1EE100ADA
:103230007047000054320008000000209C0000008D
:10324000C4010008F03200089C0000201C2400008B
:10325000E001000800000000010203040102030471
:103260000607080900000000000000000000000040
:10327000000000000000000000000000000000004E
:10328000000000000000000000000000000000003E
:10329000000000000000000000000000000000002E
:1032A000000000000000000000000000000000001E
:1032B000000000000000000000000000000000000E
:1032C00000000000000000000000000000000000FE
:1032D00000000000000000000000000000000000EE
:1032E00000000000000000000000000000000000DE
:040000050800018965
:00000001FF
