:020000040800F2
:10000000F81D002031020008710C0008C109000829
:100010006D0C0008E9040008F71600080000000055
:10002000000000000000000000000000790E000841
:100030003106000800000000ED0C0008D10F000898
:100040004B0200084B0200084B0200084B0200085C
:100050004B0200084B020008910600084B02000802
:100060004B0200084B0200084B0200084B0200083C
:100070004B0200084B0200084B0200084B0200082C
:100080004B0200084B0200084B0200084B0200081C
:100090004B0200084B0200084B0200084B0200080C
:1000A0004B0200084B0200084B0200084B020008FC
:1000B0004B0200083D1000084B0200084B020008EC
:1000C0004B0200084B0200084B0200084B020008DC
:1000D0004B02000899130008051400088D1400084D
:1000E0004B0200084B0200084B0200084B020008BC
:1000F0004B0200084B0200084B0200084B020008AC
:100100004B0200084B0200084B0200084B0200089B
:100110004B0200084B0200084B0200084B0200088B
:100120004B0200084B0200084B0200084B0200087B
:100130004B0200084B0200084B0200084B0200086B
:100140004B0200084B0200084B0200084B0200085B
:100150004B0200084B0200084B0200084B0200084B
:100160004B0200084B0200084B0200084B0200083B
:100170004B0200084B0200084B0200084B0200082B
:100180004B0200084B02000800F002F800F041F8B2
:100190000AA090E8000C82448344AAF10107DA45E2
:1001A00001D100F036F8AFF2090EBAE80F0013F0F3
:1001B000010F18BFFB1A43F0010318474C29000038
:1001C0006C290000103A24BF78C878C1FAD85207C9
:1001D00024BF30C830C144BF04680C6070470000C1
:1001E0000023002400250026103A28BF78C1FBD840
:1001F000520728BF30C148BF0B607047642900F028
:100200007980002070471FB502F078FC1FBD10B543
:1002100010BD00F037F91146FFF7F5FF01F04CFD76
:1002200000F055F903B4FFF7F2FF03BC01F065FAE3
:100230000948804709480047FEE7FEE7FEE7FEE77A
:10024000FEE7FEE7FEE7FEE7FEE7FEE704480549B6
:10025000054A064B70470000D50F000889010008C9
:10026000F8170020F81D0020F8190020F8190020C8
:10027000704700000FB4044910B503AA029800F0BB
:10028000D3F810BC5DF814FB140000202DE9F041F8
:100290000E460446002020622046E168884730B3BD
:1002A000252805D0D4E901219047206A401CF2E7B7
:1002B000E168204600278847050018D0A5F14100D5
:1002C000192802D820354FF40067324629462046C7
:1002D0002760FFF793FF40B1012804D0F61D26F0F8
:1002E00007060836D8E7361DD6E72846DAE7206A3B
:1002F000BDE8F0812DE9F04106460024106875291B
:10030000314616A510D0AFF30080002802DA404233
:1003100013A507E031688A0701D512A502E0490755
:1003200004D511A5012401E0AFF3008000210A22C9
:1003300006F1240709E0B0FBF2FCB0FBF2F302FB8C
:100340001C00303078541846491C0028F3D123464D
:100350002A463046BDE8F04100F00CB8000000002D
:100360002D0000002B0000002000000070477047A7
:10037000704770472DE9F0470D469946924604466E
:1003800000F124080168880604D5E06921F0100115
:10039000216000E00120A84201DD471B00E00027AA
:1003A000A1697A1902EB0900081AA0612078C00639
:1003B00002D42046AFF30080002608E0D4E90121F2
:1003C0001AF806009047206A401C761C20624E45B1
:1003D000F4DB2078C0060AD52046AFF3008006E0A3
:1003E000D4E9012130209047206A401C2062381E49
:1003F000A7F10107F4DC07E0D4E9012118F80500B2
:100400009047206A401C2062281EA5F10105F3DCFC
:100410002046AFF300802078000602D50220BDE818
:10042000F0870120FBE70000074B70B50D467B44C9
:1004300000F011F80446284600F020F810B14FF003
:10044000FF3070BD204670BDAF16000001694A1C28
:1004500002610878704700B58FB0CDE90131002105
:10046000059105497944CDE9031011466846FFF727
:100470000DFF0FB000BD0000E5FFFFFF007B00F0A7
:1004800080007047754600F02BF8AE4605006946BF
:10049000534620F00700854618B020B5FFF7D6FE7A
:1004A000BDE820404FF000064FF000074FF0000875
:1004B0004FF0000B21F00701AC46ACE8C009ACE8F6
:1004C000C009ACE8C009ACE8C0098D46704710B55A
:1004D0000446AFF300802046BDE81040FFF7A2BEFF
:1004E000004870479817002000BFFEE736490A7899
:1004F0000978491C344B19703449885409785529B6
:1005000003D000211A46117070472F4909780B2932
:1005100000DAF9E72D494978503909294ED2DFE848
:1005200001F0050D151D252D353D45002849274AAB
:10053000921C13680B6052684A603FE02549234AC9
:10054000921C13680B6052684A6037E022491F4AC8
:10055000921C13680B6052684A602FE01F491B4AC7
:10056000921C13680B6052684A6027E01C49174AC6
:10057000921C13680B6052684A601FE01949134AC5
:10058000921C13680B6052684A6017E016490F4AC4
:10059000921C13680B6052684A600FE013490B4AC3
:1005A000921C13680B6052684A6007E01049074AC2
:1005B000921C13680B6052684A6000BF00BF0021A4
:1005C000014A117000BF9FE79400002060130020D3
:1005D0004A000020520000205A0000206200002043
:1005E0006A000020720000207C00002084000020AF
:1005F0008C00002010B504460B4801780078401CA0
:10060000094A10700948445410460078022809D15C
:1006100006494A78097802EB012001F06FFE0020BC
:100620000149087010BD0000970000209C160020B2
:10063000704700001CB50121102000F059FB02207A
:10064000009001208DF8040000208DF806000220A3
:100650008DF8050000208DF8070069460B4800F072
:10066000F3F80121102000F043FB0120009000204E
:100670008DF8040003208DF8050002208DF8070096
:100680006946024800F0E0F81CBD0000001002407E
:1006900070B52DED048B01F047FA38B100214FF011
:1006A000804000F000FE00F058F822E04FF080405B
:1006B00000F0DCFD054600214FF0804000F002FD17
:1006C000284602F006F941EC190B9FED0D0B53EC97
:1006D000102B02F015F941EC180B02F0CDF804468E
:1006E000204601F00BFE00200749087000F00EF8CC
:1006F00000BF012000F058F8BDEC048B70BD000075
:10070000333333333333FB3F980000200EB50121E0
:10071000880300F01DFB0021042000F0AFFB012046
:10072000009000208DF8040008208DF805000120BD
:100730008DF80600684600F03DF806208DF80800A8
:1007400000208DF8090002208DF80A0001208DF8A4
:100750000B0002A800F08EFA0EBD0EB50121880331
:1007600000F0F6FA0021042000F088FB0120009040
:1007700000208DF804000C208DF8050001208DF874
:100780000600684600F016F806208DF808000020E4
:100790008DF8090002208DF80A0001208DF80B0069
:1007A00002A800F067FA0EBD01490860704700001A
:1007B000143C0140002123498279002A3AD00A469C
:1007C000126803689A430B461A600A1D1268036890
:1007D0009A430B1D1A60027911440A6803681A4390
:1007E0000A60184A0832126803689A43154B0833A6
:1007F0001A601A1D126803689A43124B0C331A6070
:100800004279102A0ED11A1F126803681A430D4B41
:1008100008331A601A1D126803681A43094B0C3317
:100820001A600DE00749427911440A6803681A43C7
:100830000A6005E0027911440A6803689A430A6075
:1008400070470000003C0140F0B50A46002100233B
:10085000002400BF3DE0012505FA01F3156805EA13
:1008600003049C4234D105684F000326BE40B543C3
:10087000056015794E00B540066835430560157969
:10088000012D02D01579022D16D185684F0003265F
:10089000BE40B543856055794E00B5408668354306
:1008A0008560456801268E40B54345604568967968
:1008B0008E40B6B235434560C5684F000326BE4042
:1008C000B543C560D5794E00B540C6683543C560AF
:1008D000491C1029BFD3F0BDF0B5002300244D07FB
:1008E000ED0E02FA05F3CE1000F1200555F8265062
:1008F0004E07F70E0F26BE40B543CF1000F120067D
:1009000046F82750CE1000F1200555F8265045EA4C
:100910000304CE1000F1200545F82640F0BD024644
:10092000002013690B400BB1012000E0002070474C
:10093000418370470183704710B501F0F5F81E49F7
:100940004870002400F022F9F0B9012001F01AFEED
:1009500000214FF0804000F0A6FC0121880700F044
:10096000B1FB00BF4FF0804000F080FC0B28F9D3B2
:10097000002001F007FE00214FF0804000F093FCC2
:1009800001200E49087011E04FF0804000F06EFC2D
:100990004EF66021884209D90020084908700024D9
:1009A00000214FF0804000F08DFB10BD02484078E0
:1009B0000149087000BFF8E7990000209800002066
:1009C00000BFFEE710B588B004460121334800F0AF
:1009D0009FF90420069002208DF81C0003208DF85A
:1009E0001D0000208DF81E0001208DF81F0006A9B3
:1009F0002B48FFF729FF0820069002208DF81C00E5
:100A000003208DF81D0000208DF81E0001208DF8B8
:100A10001F0006A92248FFF717FF072202212048DE
:100A2000FFF75AFF072203211D48FFF755FF0294E5
:100A30000020ADF80C00ADF80E00ADF81000ADF8D8
:100A400014000C20ADF8120002A9164800F0E0FDD9
:100A5000002240F22771134800F0B5FD012240F258
:100A60002551104800F0AFFD40210E4800F050FD28
:100A700001210C4800F064FD26208DF804000120BF
:100A80008DF8050002208DF8060001208DF8070082
:100A900001A800F0EFF808B010BD0000010002004E
:100AA000000002400044004010B588B00446012117
:100AB000334800F02DF94FF48060069002208DF845
:100AC0001C0003208DF81D0000208DF81E00012061
:100AD0008DF81F0006A92B48FFF7B6FE4FF4006003
:100AE000069002208DF81C0003208DF81D000020C8
:100AF0008DF81E0001208DF81F0006A92148FFF780
:100B0000A3FE07220A211F48FFF7E6FE07220B215A
:100B10001C48FFF7E1FE02940020ADF80C00ADF890
:100B20000E00ADF81000ADF814000C20ADF8120066
:100B300002A9154800F06CFD002240F2277112480E
:100B400000F041FD012240F225510F4800F03BFD2D
:100B500040210D4800F0DCFC01210B4800F0F0FCC6
:100B600027208DF8040003208DF805008DF806007D
:100B700001208DF8070001A800F07CF808B010BD36
:100B800002000400000402400048004001480078D0
:100B900070470000980000201CB50121084600F0B5
:100BA000A7F8C020009001208DF8040000208DF8E7
:100BB000060002208DF8050001208DF80700694627
:100BC0000348FFF741FEC0210148FFF7B3FE1CBDFB
:100BD0000000024010B504460F480068A04209D347
:100BE0000D480068B0EB440F04D280210B48FFF79A
:100BF000A1FE0BE008480068B0EB440F06D380214B
:100C00000648FFF795FE0020034908600248006887
:100C1000401C0149086010BD200000200000024077
:100C200010B504460F480068A04209D30D4800687B
:100C3000B0EB440F04D240210B48FFF77BFE0BE0E2
:100C400008480068B0EB440F06D340210648FFF780
:100C50006FFE00200349086002480068401C0149FB
:100C6000086010BD1C0000200000024000BFFEE72D
:100C70007047000070B5002100230F22C4781CB318
:100C8000174C246804F4E064C4F5E064C4F307215D
:100C9000C1F10404E3B20A4144789C40E1B2847893
:100CA000144021430C07210E0E4C05786155047841
:100CB00004F01F050124AC4005786D11AD0005F16D
:100CC000E025C5F8004109E0047804F01F0501247F
:100CD000AC40054D0678761145F8264070BD000001
:100CE0000CED00E000E400E080E100E0704700006F
:100CF00029B1064A12680243044B1A6004E0034A11
:100D000012688243014B1A6070470000303802407D
:100D100029B1064A12680243044B1A6004E0034AF0
:100D200012688243014B1A6070470000403802404D
:100D300029B1064A12680243044B1A6004E0034AD0
:100D400012688243014B1A6070470000203802404D
:100D500029B1064A12680243044B1A6004E0034AB0
:100D600012688243014B1A60704700004438024009
:100D700029B1064A12680243044B1A6004E0034A90
:100D800012688243014B1A60704700002438024009
:100D9000F0B5002100220024022500260223324F54
:100DA0003F6807F00C0121B1042905D0082937D18B
:100DB00005E02E4F076036E02D4F076033E02A4FE5
:100DC0003F1F3F68C7F38056274F3F1F3F6807F01C
:100DD0003F036EB1264FB7FBF3F7DFF88CC0ACF1E1
:100DE000040CDCF800C0CCF3881C07FB0CF40CE00E
:100DF0001E4FB7FBF3F7DFF870C0ACF1040CDCF862
:100E000000C0CCF3881C07FB0CF4174F3F1F3F6852
:100E1000C7F301477F1C7D00B4FBF5F7076002E0D4
:100E2000124F076000BF00BF0F4F3F6807F0F0018F
:100E30000909104F7A5C0768D74047600A4F3F683E
:100E400007F4E051890A0B4F7A5C4768D740876006
:100E5000054F3F6807F46041490B064F7A5C4768CD
:100E6000D740C760F0BD0000083802400024F400FD
:100E700000127A00000000207047000030B5002208
:100E80008B071C0F0F2303FA04F20B4B8C1053F843
:100E900024309343084C8D1044F8253023468C10A1
:100EA00053F824308C07240F00FA04F42343024C37
:100EB0008D1044F8253030BD083801400CB50020B5
:100EC000019000903448006840F480303249086056
:100ED00000BF3148006800F4003000900198401CC9
:100EE0000190009818B90198B0F5A04FF1D12A48A7
:100EF000006800F4003010B10120009001E00020F3
:100F000000900098012846D123484030006840F006
:100F100080502149403108602048006840F440403A
:100F20001E4908601C48083000681B4908310860E9
:100F30000846006840F4004008600846006840F435
:100F4000A05008601648091F0860081F006840F09C
:100F50008070091F086000BF0F48006800F0007033
:100F60000028F9D040F205700E4908600A480830A0
:100F7000006820F00300084908310860084600684E
:100F800040F00200086000BF03480830006800F02D
:100F90000C000828F8D10CBD003802400070004059
:100FA00008544007003C0240042808D14FF0E021DB
:100FB000096941F004014FF0E022116107E04FF0B0
:100FC000E021096921F004014FF0E022116170472E
:100FD0007047000010B51548006840F470001349D0
:100FE00008601348006840F00100114908600020C3
:100FF0000F49083108600E4800680E4908400C4946
:1010000008600D48091D0860081F006820F4802052
:10101000091F0860002006490C310860FFF74EFFE9
:101020004FF0006001498039086010BD88ED00E094
:1010300000380240FFFFF6FE1030002410B50121F9
:10104000054800F016F9012801D100F071F90121DD
:10105000014800F034F810BD000400407FB505469B
:101060000C4601210220FFF753FE0295ADF8044023
:101070000020ADF80600ADF80C0001A90D4800F005
:1010800015F9012211460B4800F004F90121094825
:1010900000F018F81D208DF8000001208DF80100E7
:1010A00003208DF8020001208DF803006846FFF749
:1010B000E1FD7FBD00040040CA4302827047CA437D
:1010C0000282704721B1028842F00102028004E0EE
:1010D00002884FF6FE731A400280704710B504462E
:1010E0005548844208D101210846FFF741FE0021FE
:1010F0000120FFF73DFE9DE0B4F1804F08D10121B2
:101100000846FFF715FE00210120FFF711FE91E0D0
:101110004A48844208D101210220FFF709FE00213C
:101120000220FFF705FE85E04548844208D10121F1
:101130000420FFF7FDFD00210420FFF7F9FD79E011
:101140004048844208D101210820FFF7F1FD002129
:101150000820FFF7EDFD6DE03B48844208D10121F6
:101160001020FFF7E5FD00211020FFF7E1FD61E011
:101170003648844208D101212020FFF7D9FD002103
:101180002020FFF7D5FD55E03148844208D10121E8
:101190000220FFF7EDFD00210220FFF7E9FD49E005
:1011A0002C48844209D101210804FFF7E1FD002108
:1011B0004FF48030FFF7DCFD3CE02748844209D142
:1011C00001214804FFF7D4FD00214FF40030FFF760
:1011D000CFFD2FE02148844209D101218804FFF787
:1011E000C7FD00214FF48020FFF7C2FD22E01C481C
:1011F000844208D101214020FFF79AFD00214020C0
:10120000FFF796FD16E01748844208D1012180209F
:10121000FFF78EFD00218020FFF78AFD0AE01248CB
:10122000844207D101218015FFF782FD0021A0151E
:10123000FFF77EFD10BD00000000014000040040EB
:1012400000080040000C0040001000400014004066
:1012500000040140004001400044014000480140BA
:1012600000180040001C0040002000400146486A71
:10127000704730B50246002000230024158A05EA95
:101280000103958905EA010413B10CB1012000E0C6
:10129000002030BD1AB183890B43838102E083892A
:1012A0008B438381704741627047000000220288AF
:1012B000184B98420ED0184B98420BD0B0F1804F8B
:1012C00008D0164B984205D0154B984202D0154BCA
:1012D000984204D14FF68F731A404B881A43124B31
:1012E000984207D0114B984204D04FF6FF431A4062
:1012F0000B891A4302804B68C3620B880385054B38
:10130000984202D0044B984201D18B7A0386012384
:101310008382704700000140000401400004004047
:1013200000080040000C0040001000400014004085
:1013300010B5002000F0E8FF40F6C410FFF770FC85
:1013400000F0A2FA00F050FD00F0C2FE10BD0EB594
:1013500001210846FFF7DCFC4FF08040FFF7BEFE9E
:101360004FF6FF70019040F24730ADF800000020CA
:10137000ADF80800ADF8020069464FF08040FFF775
:1013800095FF01218807FFF797FE00214FF080406D
:10139000FFF798FE0EBD000010B540F2255116482B
:1013A00000F0E7F838B3144800F09CF9C4B2232CDD
:1013B00002D100201149087011481049097844549D
:1013C0000078232817D10E48C079212808D10B486E
:1013D0000078072804D100F069FD00200749087053
:1013E00006480078401C054908700846007808281F
:1013F00001DB0020087010BD001001401A00002021
:10140000DC01002010B540F227711C4800F0B1F853
:10141000E0B11B4802780078401C194B187019483D
:10142000815C164800F063F940F22771134800F020
:1014300078F81348007814490978884217D10022B7
:1014400040F227710D4800F0BEF810E040F225513F
:101450000A4800F08EF850B10849091D0988C8B241
:10146000FFF744F840F22551044800F05AF84FF4D1
:101470005871024800F055F810BD000000440040CB
:1014800048000020601200204900002010B540F202
:1014900027711B4800F06DF8D8B11A48027800781F
:1014A000401C184B18701848815C154800F01FF953
:1014B00040F22771124800F034F8124800781349BE
:1014C0000978884205D1002240F227710C4800F0CB
:1014D0007AF840F225510A4800F04BF850B108491B
:1014E000091D0988C8B2FFF785F840F22551044864
:1014F00000F017F84FF45871014800F012F810BDD1
:1015000000480040950000209C1500209600002017
:1015100001F40072B2F5007F00D100BFCA4302801F
:10152000704710B50022002340F66A14A14200D192
:1015300000BF0A1201249440A3B2DC43048010BD12
:1015400021B1828942F40052828104E082894DF601
:10155000FF731A408281704702460020B1F5007F78
:1015600000D100BF13880B400BB1012000E0002028
:10157000704770B50246002400230025002040F685
:101580006A16B14200D100BFC1F3421501F01F033A
:10159000012606FA03F3012D02D19689334006E0B5
:1015A000022D02D1168A334001E0968A33400C1294
:1015B000012606FA04F41688344013B10CB1012058
:1015C00000E0002070BDF0B5034600240026002591
:1015D000002040F66A17B94200D100BF1846C1F397
:1015E000421401F01F06012707FA06F5012C01D16C
:1015F0000C3004E0022C01D1103000E014301AB19C
:1016000007682F43076002E00768AF430760F0BD3B
:101610002DE9FF4705460E460024A14600BFA0461F
:10162000B08900B100BF2C8A24F44054F0880443F0
:101630002C82AC8941F20C608443B0883189084324
:10164000718908430443AC81AC8A24F44074B089A6
:101650000443AC826846FFF79BFB2048854202D0DA
:101660001F48854202D1DDF80C9001E0DDF80890BA
:10167000A88900F4004040B109EBC90000EB091053
:1016800031684900B0FBF1F707E009EBC90000EB56
:10169000091031688900B0FBF1F76420B7FBF0F066
:1016A00004012009642101FB1078A88900F400409E
:1016B00040B1322000EBC800B0FBF1F000F00700B1
:1016C000044308E0322000EB08106421B0FBF1F085
:1016D00000F00F0004432C81BDE8FF87001001409B
:1016E0000014014001468888C0F308007047C1F328
:1016F00008028280704700BFFEE7014600BF7047C6
:101700001EB55C49097804290DD05B49B1F9001078
:10171000584A1278594B43F8221056490978491C07
:10172000544A117013E0002107E0544B4A1C53F84F
:10173000222043F821204A1CD1B20429F5DB4E496E
:10174000B1F900104B4A12784C4B43F8221001209B
:101750004849095C042911D0474931F9101000EBC0
:101760008002464B03EB8202424B1B5C42F8231083
:101770004049095C491C3F4A115420E0002110E017
:1017800000EB80023D4B03EB82034A1C53F82220FE
:1017900000EB8003394C04EB830343F821204A1CFF
:1017A000D1B20429ECDB344931F9101000EB80028E
:1017B000324B03EB82022F4B1B5C42F823100220BA
:1017C0002C49095C042910D02D49896800EB80025E
:1017D0002A4B03EB8202274B1B5C42F8231025495E
:1017E000095C491C234A11541FE0002110E000EB62
:1017F0008002224B03EB82034A1C53F8222000EBA9
:1018000080031E4C04EB830343F821204A1CD1B211
:101810000429ECDB1A49896800EB8002174B03EBC3
:101820008202144B1B5C42F82310002100910191AD
:10183000029100BF1BE000220DE001EB81030F4C81
:1018400004EB830353F822305DF8214023444DF824
:101850002130531CDAB2052AEFDB5DF82120052385
:1018600092FBF3F2074B43F821204A1CD1B2032923
:10187000E1DB1EBD27000020620000205C04002088
:10188000440400205004002070B500251DE0002411
:1018900017E005EB45000F4901EB800050F82410DC
:1018A000681C00EB40000B4A02EB800050F824005B
:1018B000814204D3022000F027FD002070BD601C8F
:1018C000C4B2032CE5DB681CC5B2042DDFDB0120AC
:1018D000F4E70000D805002001460022002002E0C5
:1018E0000B5C1A44401C0628FAD3104670470000CF
:1018F00010B504466FF00400FFF756FBE11704EB48
:101900005171C1F3C701074A11701046007800EB0E
:101910004001C1EBC0104FF6FF7101EAC00002495F
:10192000088010BD100000201200002030B50024F7
:1019300010E0611CC8B2002100F0BEFD611CC8B2FD
:1019400000F05CF90546611CC8B2294600F0F4FCC1
:10195000601CC4B2032CECDB30BD70477FB505467C
:1019600000260020019002900390002457E0052DEE
:1019700001D200264EE0052D10D30A2D0ED82B489B
:1019800050F82400009029480C3850F824200A23ED
:101990000521284600F009FF06463BE00A2D10D33A
:1019A0000F2D0ED821480C3050F8240000901F480D
:1019B00050F824200F230A21284600F0F6FE0646A0
:1019C00028E00F2D11D3142D0FD81848183050F8D7
:1019D0002400009015480C3050F8242014230F21C7
:1019E000284600F0E2FE064614E0142D11D3192D0E
:1019F0000FD80E48243050F8240000900B481830BF
:101A000050F8242019231421284600F0CEFE064663
:101A100000E0002601A840F82460601CC4B2032C3A
:101A2000A5DB01A800F034FB7FBD0000E405002029
:101A30007FB505460020019002900390002445E008
:101A4000052D0FD2244850F824000090234850F868
:101A5000242005230021284600F0A7FE01A941F813
:101A6000240031E0052D12D30A2D10D81A480C306D
:101A700050F824000090184850F824200A2305212B
:101A8000284600F092FE01A941F824001CE00A2D2E
:101A900013D30F2D11D81048183050F8240000909F
:101AA0000D480C3050F824200F230A21284600F05E
:101AB0007CFE01A941F8240006E0611CC8B200F0D8
:101AC0009DF801A941F82400601CC4B2032CB7DBC7
:101AD00001A800F0DDFA7FBD14060020E405002017
:101AE00070B504460D4600BF40210548FFF734FDA0
:101AF0000028F9D0E1B20248FFF7F9FD204670BD99
:101B000000100140014800787047000034000020B8
:101B10000148007870470000350000200148007837
:101B2000704700003800002010B501210148FEF781
:101B3000F6FE10BD0010024010B505210848C0F89F
:101B4000841000F00FF80649C1F88800002104480D
:101B5000C0F88C10C0F89010C0F8941010BD0000B0
:101B60000403002001480078704700002C0000208A
:101B7000014800687047000030000020014880687C
:101B800070470000500400200146012906DB0329AC
:101B900004DC481E024A52F8200070470020FCE78F
:101BA000B002002010B5002423E0601C124901EBB4
:101BB00044114860611CC8B200F020F80E4901EBE6
:101BC00044118860611CC8B2FFF7DEFF0A4901EBCF
:101BD0004411C860611CC8B200F01EF8064901EB50
:101BE000441108610020044901EB44114861601C64
:101BF000C4B2032CD9DB10BD040300200146012927
:101C000006DB032904DC481E024A52F82000704714
:101C10000020FCE7A40200200146012906DB03297D
:101C200004DC481E024A52F8200070470020FCE7FE
:101C3000BC0200200648007838B10548407820B141
:101C40000348807808B1012070470020FCE70000BD
:101C50002400002000B5042109484166FFF750FD2B
:101C600000F010F80649886600F016F80449C866C6
:101C7000FFF784FF0249086700210148416700BD62
:101C8000040300200248006802490968401A7047AE
:101C9000500400204404002002484068024949687A
:101CA000401A704750040020440400200148007886
:101CB000704700003600002000F044FD04E0FEF70D
:101CC0003BFE012000F08EFAF9E7000070B50546F2
:101CD0000C46681E284951F8200020B10CB901209B
:101CE00000E000200446012D04D0022D0FD0032D6A
:101CF00027D119E02CB14FF480712048FEF71AFE6D
:101D000004E04FF480711D48FEF712FE1AE02CB17A
:101D10004FF400611948FEF70DFE04E04FF4006136
:101D20001648FEF705FE0DE02CB14FF48041134834
:101D3000FEF700FE04E04FF480411048FEF7F8FD86
:101D400000E000BF00BF681E0B4951F8200020B121
:101D50000CB9012000E000200446012D0ADB032D10
:101D600008DC0CB9012200E00022681E0249243977
:101D700041F8202070BD0000EC020020001002405D
:101D800070B505460C46012D04D0022D0DD0032D53
:101D900025D117E024B980211248FEF7CBFD03E0DE
:101DA00080211048FEF7C4FD1AE02CB94FF4806181
:101DB0000C48FEF7BFFD04E04FF480610948FEF7D0
:101DC000B7FD0DE02CB94FF400510648FEF7B2FD07
:101DD00004E04FF400510348FEF7AAFD00E000BF05
:101DE00000BF70BD0010024010B5002400BF14E019
:101DF0000C4850F824100C3050F82400814205D8CB
:101E0000611CC8B20021FFF761FF04E0611CC8B289
:101E10000121FFF75BFF601CC4B2032CE8DB00F07C
:101E2000B5FA10BDA4020020002000BF0FE041F26F
:101E30008831084A42F820100A4606490C3141F818
:101E400020200A220C3141F82020411CC8B203286E
:101E5000EDDB7047A40200201CB501211020FEF725
:101E600047FF4FF68070009001208DF8040000209D
:101E70008DF8060002208DF8050001208DF807007E
:101E800069460948FEF7E0FC4FF680710648FEF708
:101E900051FD012404E0E0B20121FFF771FF641C51
:101EA000032CF8DD1CBD00000010024070B50024BA
:101EB0007348807800067249C97800EB0140704988
:101EC000097900EB01206E49497945186C4844783E
:101ED000522C7DD2DFE804F0D02C3844505C6A7676
:101EE00084D0D02D3945515D6B7785D0D02E3A46C0
:101EF000525E6C7886D0D067D0D0D0D0D0D0D0D041
:101F0000D029D0D0D0D0D0D0D0D0D09091929394AE
:101F10009A9B9C9D9E9FD0D0D0D0D0D0D0D0D0B80E
:101F2000C0C8D0D0D0A4A8ACB0B4FFF7FFFCA4E0E8
:101F300000BF00BF0A2094FBF0F0401CC6B2294647
:101F4000304600F00BFA98E000BF00BF0A2094FB77
:101F5000F0F0401CC6B26942304600F0FFF98CE058
:101F600000BF00BF0A2094FBF0F0401CC6B2A9B22B
:101F7000304600F0A1FA80E000BF00BF0A2094FBC9
:101F8000F0F0401CC6B22946304600F0D5F974E0A6
:101F900000BF00BF0A2094FBF0F0401CC6B23046E0
:101FA00000F0A2FA69E000F08BF966E000BF00BF24
:101FB0000A2094FBF0F0401CC6B22946304600F0DF
:101FC000A5FA00BF00BF00BF0A2094FBF0F000E0BC
:101FD00052E0401CC6B22946304600F079FA00BFF4
:101FE00000BF00BF0A2094FBF0F0401CC6B2E9B26B
:101FF000304600F095F940E000BF00BF00BF00BFD1
:10200000A4F13301C8B200F0E3FA36E000BF00BF2C
:1020100000BF00BF00BFA4F1330000F0C3FA2CE002
:10202000284600F077F928E0E8B200F055F924E0FE
:10203000E8B200F057F920E0284600F059F91CE01A
:10204000E8B200F099FA18E000F01CF82846FFF713
:1020500085FC00F071FB10E000F014F82846FFF753
:102060007CFC00F069FB08E000F00CF82846FFF764
:10207000DFFC00F061FB00E000BF00BF70BD0000AE
:10208000DC01002000200149087070475C06002038
:102090000E490978491C0D4A117011460978491EEC
:1020A000121D036842F82130111F0A78521E01F2F6
:1020B0000441436841F8223004490A78521E01F66F
:1020C0000401836841F82230704700005C0600205C
:1020D00010B53F480078002879D0FFF7ABFDF8B184
:1020E0003C4800783C490968884219D000240DE03A
:1020F000384A121D02EB8422374B1B6852F823101A
:10210000621CD0B200F018F9601CC4B2032CEFDBE3
:1021100000F074FA30480068401C2F49086056E00F
:102120002C4800782C490968884250D8FFF782FD76
:1021300000284CD0FFF7ECFC18B3FFF7B7FD70B9DF
:10214000002408E0254A52F82410621CD0B200F0A6
:10215000F3F8601CC4B2032CF4DB00F04FFAFFF775
:10216000DDFC1F490968884205D80020184908701D
:102170001B4908600AE01A480068401C18490860BA
:1021800004E0002012490870154908600020124937
:1021900008600F480078D0B9FFF7B4FCB8B100244C
:1021A00013E0611CC8B2FFF729FD0C4951F8241057
:1021B000884206D0094A52F82410621CD0B200F0BE
:1021C000BBF800F01BFA601CC4B2032CE9DB10BDA5
:1021D0003C0000205C06002040000020E4050020B8
:1021E0004400002030B585B004462B480078401CE0
:1021F000294908702948007808B900F093F9264861
:102200000078A04245D326482449097800EB4110C4
:10221000C0692349214A127801EB42118969204A99
:102220001E4B1B7802EB431252691D4B1B4D2D7840
:1022300003EB45131B69CDE90132CDE903101848C2
:102240001649097800EB4110C06800901448134DFE
:102250002D7800EB451083681148104D2D7800EB68
:10226000451042680E480D4D2D7800EB4510016871
:102270000CA0FDF7FFFF09480078401C07490870D3
:1022800008460078052801DB00200870002002497C
:10229000087005B030BD00002B0000202A0000208F
:1022A000040300202325642C25642C25642C25643C
:1022B0002C25642C25642C25642C2564000000004A
:1022C0000348006803490860014840684860704757
:1022D00050040020440400200149087070470000A9
:1022E00034000020014908707047000035000020CC
:1022F00001490860704700003800002001498860EB
:102300007047000044040020014908707047000035
:102310002C000020014908607047000030000020B8
:10232000012805DB032803DC421E024B43F8221080
:1023300070470000EC02002010B503460C46012B4C
:1023400009DB032B07DC1846FFF766FC18B1581EA3
:10235000014941F8204010BDB002002010B50346ED
:102360000C46012B0EDB032B0CDC1846FFF754FC4C
:1023700040B1581E044951F820000219581E0C3172
:1023800041F8202010BD0000A402002070B50025F7
:10239000002484E0611CC8B2FFF73EFC00B970BDA8
:1023A000414850F824100C3050F82400814272D07B
:1023B000C820FEF70FFC00203C4908553A48183069
:1023C00050F824503A4850F82400A8421BD2601C10
:1023D000012804D0022808D0032812D10BE04FF4C2
:1023E00000713448FEF7A6FA0CE04FF480513148F2
:1023F000FEF7A0FA06E04FF400412E48FEF79AFAE5
:1024000000E000BF3EE02A4850F82400A84221D353
:10241000274850F82400690088421BD2601C01281C
:1024200004D0022808D0032812D10BE04FF4007129
:102430002048FEF77DFA0CE04FF480511D48FEF76E
:1024400077FA06E04FF400411A48FEF771FA00E00F
:1024500000BF17E00020164941F82400124824303C
:1024600050F8240038B1104850F82400401C0E49A0
:1024700041F8240006E00C4850F82400401E0A49A8
:1024800041F824000A4850F82400401C084941F84B
:10249000240003E0FFE7012004490855641C032CD5
:1024A000FFF478AF00BF7AE7A402002024000020E8
:1024B000F802002000100240012805DB032803DC9D
:1024C000421E024B43F8221070470000BC0200205D
:1024D000012805DB032803DC421E024B43F82210CF
:1024E00070470000E002002001280CDB03280ADC12
:1024F00041F28832411E044B43F821201346024A20
:102500000C3242F821307047A4020020012805DB7C
:10251000032803DC421E024B43F8221070470000E0
:10252000D402002010B500200CE07B21114A02EB00
:102530004012116040F241110E4A02EB4012D1618B
:10254000411CC8B20528F0DBFFF72CFBFFF782FB2C
:10255000FFF7F2FA00240AE0064901EB4410FFF706
:10256000BBF9044901EB44118861601CC4B2052C1D
:10257000F2DB10BD04030020014908707047000021
:102580003600002010B5044624B102210448FEF7AD
:10259000D1F903E002210248FEF7CAF910BD00009C
:1025A0000010024070B5054600240CE0611CC8B262
:1025B000FFF724FB05EB4501044A02EB810141F8DA
:1025C0002400601CC4B2032CF0DB70BDD8050020D1
:1025D00070B5054600240CE0611CC8B2FFF70EFB85
:1025E00005EB4501044A02EB810141F82400601C1F
:1025F000C4B2032CF0DB70BDD80500202DE9F047F4
:10260000FFF7B6FA044600250027A1B20120FFF724
:1026100053FF0120FFF7F2FA06460120FFF7B4FA54
:10262000864232D1FFF7A4FA05460220FFF7E6FA08
:1026300006460220FFF7A8FA864203D1FFF798FA70
:10264000074666E00220FFF7D9FA81460220FFF72D
:102650009BFAA9EB0008B8F1000F01DB404601E04E
:10266000C8F1000000FB05F90320FFF7C7FA824616
:102670000320FFF789FAAAEB0006002E01DB3046A3
:1026800000E07042B9FBF0F743E00120FFF7B6FA33
:1026900081460120FFF778FAA9EB0008B8F1000F96
:1026A00001DB404601E0C8F1000000FB04F9022014
:1026B000FFF7A4FA82460220FFF766FAAAEB0006AB
:1026C000002E01DB304600E07042B9FBF0F501203E
:1026D000FFF794FA81460120FFF756FAA9EB0008AC
:1026E000B8F1000F01DB404601E0C8F1000000FB3B
:1026F00004F90320FFF782FA82460320FFF744FA29
:10270000AAEB0006002E01DB304600E07042B9FB68
:10271000F0F70A2C00D20A240A2D00D20A250A2F2B
:1027200000D20A27A9B20220FFF7C6FEB9B20320E1
:10273000FFF7C2FEBDE8F08701200149087070472D
:102740003C00002010B5A820FFF7D2F84FF4E1308C
:1027500000F036F84FF41650FEF734F94FF41650E7
:10276000FEF7A2F9FFF760FBFEF7F1FDFDF762FF50
:10277000FDF7CCFFFEF710FAFFF76EFB42F2CF0138
:102780000120FEF76BFC42F210710120FFF7BEFE44
:1027900042F210710220FFF7B9FE42F210710320DD
:1027A000FFF7B4FEFFF7C2F810BD70B50446049DF4
:1027B000A81A5E1AB0FBF6F0661A00FB062070BD80
:1027C00010B588B0044601210846FEF791FA0121B0
:1027D0001020FEF7BDFA072209212548FEF77CF8F4
:1027E00007220A212248FEF777F84FF4C0600690CE
:1027F00002208DF81C0003208DF81D0000208DF8AC
:102800001E0001208DF81F0006A91948FEF71CF8CC
:1028100002940020ADF80C00ADF80E00ADF81000E9
:10282000ADF814000C20ADF8120002A91148FEF713
:10283000EFFE01210F48FEF783FE40210D48FEF711
:1028400067FE012240F225510A48FEF7BCFE252012
:102850008DF8040003208DF805008DF80600012096
:102860008DF8070001A8FEF705FA08B010BD0000BA
:1028700000000240001001404FEA1153A3F58063AD
:10288000D3F11E03A8BFD3F1200C08DB4FF00042A8
:1028900042EAC12252EA505232FA03F0704709422A
:1028A0000BD4102BC4BF0020704703F5787CBCF11B
:1028B000FF3F05D04FF0FF3070474FF000007047EA
:1028C00070B500F0C7F800BF49922480002070471F
:1028D000F0E710F0004248BF4042B0FA80F310FA2F
:1028E00003F10AD0C3F11D0303F580634FEA4150A1
:1028F00002EB035202EBD12170474FF0000070470A
:10290000DFF848C170B51CEA111E1EBF1CEA131582
:102910009EEA0C0F95EA0C0F00F06F8081EA030429
:1029200023EA4C134EEAD47E21EA4C1141F4801183
:1029300043F48013AE44A1FB024CA0FB0365AEF14F
:102940007F7E361955EB0C05A1FB034C4CF10003BF
:10295000A0FB021C16EB0C06654153F10003094273
:1029600018BF46F0010613F4007F0BD14FEA033184
:102970004FEA0530340341EA155140EA16506FF032
:1029800003020AE04FEAC3214FEAC520F40241EAFC
:10299000555140EA56506FF0020202EB2E4201EB15
:1029A000025585EACE710AD05FEA440C18BF24F0C4
:1029B000004450F1000041F1000120EAD47040F2DF
:1029C000FE7C624500D270BDA84214BF4FF0804427
:1029D0004FF04044002E08BF0024BEF1806FA8BF16
:1029E000A1F1C041BDE8704080F282804FF000004C
:1029F00001F1C04101F0004170479EEA0C0F0CEA62
:102A0000131518BF95EA0C0F06D04FF0000081EAAD
:102A1000030E0EF0004170BD00F01CF88900013E6D
:102A200000F007B800F009B84FEA430C5FEA5C5CBD
:102A300008D081EA030100F05BB84FEA410C5FEA7D
:102A40005C5CF6D14FF00000014970470000FF07C1
:102A50000000F87F0EF1020E2EF0030E5EF8046BFC
:102A6000364205D4012A43EB030515F5001F12D8A1
:102A7000012841EB010C1CF5001F0CD80ED14FEAC8
:102A8000D17C15F5001F0CEB4C0C0CF1020C08BFAF
:102A90004CEBD37C04E04FF0080C01E04FEAD37C10
:102AA0000CEB4C0526FA05F606F00706B6F1040C09
:102AB00006D20EEB860CBDE870404CF0010C60476E
:102AC000DFE80CF0090B02024FF000414FF000006C
:102AD000A1F5002170BD19461046012851EB0104F3
:102AE00018BFD4F5001484BF002001F0004170BD70
:102AF0000808A0F500114FEA310170474FF040700F
:102B0000E1EE100A70470000282B000800000020AA
:102B10009C000000C4010008C42B00089C00002099
:102B20005C1D0000E0010008000000000102030439
:102B3000010203040607080900000000000000006D
:102B40000000000000000000000000000000000085
:102B50000000000000000000000000000000000075
:102B60000000000000000000000000000000000065
:102B70000000000000000000000000000000000055
:102B80000000000000000000000000000000000045
:102B90000000000000000000000000000000000035
:102BA0000000000000000000000000000000000025
:102BB0000000000000000000000000000000000015
:042BC0000000000011
:040000050800018965
:00000001FF
