:020000040800F2
:10000000280A0020310200085D060008CD0500081E
:1000100059060008E9040008470D00080000000028
:10002000000000000000000000000000250800089B
:10003000ED04000800000000D90600083D09000892
:100040004B0200084B0200084B0200084B0200085C
:100050004B0200084B0200084B0200084B0200084C
:100060004B0200084B0200084B0200084B0200083C
:100070004B0200084B0200084B0200084B0200082C
:100080004B0200084B0200084B0200084B0200081C
:100090004B0200084B0200084B0200084B0200080C
:1000A0004B0200084B0200084B0200084B020008FC
:1000B0004B020008A90900084B0200084B02000887
:1000C0004B0200084B0200084B0200084B020008DC
:1000D0004B020008110B00084B0200084B020008FD
:1000E0004B0200084B0200084B0200084B020008BC
:1000F0004B0200084B0200084B0200084B020008AC
:100100004B0200084B0200084B0200084B0200089B
:100110004B0200084B0200084B0200084B0200088B
:100120004B0200084B0200084B0200084B0200087B
:100130004B0200084B0200084B0200084B0200086B
:100140004B0200084B0200084B0200084B0200085B
:100150004B0200084B0200084B0200084B0200084B
:100160004B0200084B0200084B0200084B0200083B
:100170004B0200084B0200084B0200084B0200082B
:100180004B0200084B02000800F002F800F041F8B2
:100190000AA090E8000C82448344AAF10107DA45E2
:1001A00001D100F036F8AFF2090EBAE80F0013F0F3
:1001B000010F18BFFB1A43F0010318471414000085
:1001C00034140000103A24BF78C878C1FAD8520716
:1001D00024BF30C830C144BF04680C6070470000C1
:1001E0000023002400250026103A28BF78C1FBD840
:1001F000520728BF30C148BF0B607047642900F028
:100200007980002070471FB501F0DCF91FBD10B5E3
:1002100010BD00F037F91146FFF7F5FF00F008FFB9
:1002200000F055F903B4FFF7F2FF03BC00F08DFDB9
:100230000948804709480047FEE7FEE7FEE7FEE77A
:10024000FEE7FEE7FEE7FEE7FEE7FEE704480549B6
:10025000054A064B70470000410900088901000863
:1002600028040020280A0020280600202806002054
:10027000704700000FB4044910B503AA029800F0BB
:10028000D3F810BC5DF814FB140000202DE9F041F8
:100290000E460446002020622046E168884730B3BD
:1002A000252805D0D4E901219047206A401CF2E7B7
:1002B000E168204600278847050018D0A5F14100D5
:1002C000192802D820354FF40067324629462046C7
:1002D0002760FFF793FF40B1012804D0F61D26F0F8
:1002E00007060836D8E7361DD6E72846DAE7206A3B
:1002F000BDE8F0812DE9F04106460024106875291B
:10030000314616A510D0AFF30080002802DA404233
:1003100013A507E031688A0701D512A502E0490755
:1003200004D511A5012401E0AFF3008000210A22C9
:1003300006F1240709E0B0FBF2FCB0FBF2F302FB8C
:100340001C00303078541846491C0028F3D123464D
:100350002A463046BDE8F04100F00CB8000000002D
:100360002D0000002B0000002000000070477047A7
:10037000704770472DE9F0470D469946924604466E
:1003800000F124080168880604D5E06921F0100115
:10039000216000E00120A84201DD471B00E00027AA
:1003A000A1697A1902EB0900081AA0612078C00639
:1003B00002D42046AFF30080002608E0D4E90121F2
:1003C0001AF806009047206A401C761C20624E45B1
:1003D000F4DB2078C0060AD52046AFF3008006E0A3
:1003E000D4E9012130209047206A401C2062381E49
:1003F000A7F10107F4DC07E0D4E9012118F80500B2
:100400009047206A401C2062281EA5F10105F3DCFC
:100410002046AFF300802078000602D50220BDE818
:10042000F0870120FBE70000074B70B50D467B44C9
:1004300000F011F80446284600F020F810B14FF003
:10044000FF3070BD204670BDDF0A000001694A1C04
:1004500002610878704700B58FB0CDE90131002105
:10046000059105497944CDE9031011466846FFF727
:100470000DFF0FB000BD0000E5FFFFFF007B00F0A7
:1004800080007047754600F02BF8AE4605006946BF
:10049000534620F00700854618B020B5FFF7D6FE7A
:1004A000BDE820404FF000064FF000074FF0000875
:1004B0004FF0000B21F00701AC46ACE8C009ACE8F6
:1004C000C009ACE8C009ACE8C0098D46704710B55A
:1004D0000446AFF300802046BDE81040FFF7A2BEFF
:1004E00000487047C403002000BFFEE77047F0B526
:1004F0000A4600210023002400BF3DE0012505FA43
:1005000001F3156805EA03049C4234D105684F00E5
:100510000326BE40B543056015794E00B540066818
:10052000354305601579012D02D01579022D16D1BC
:1005300085684F000326BE40B543856055794E005F
:10054000B540866835438560456801268E40B543D1
:100550004560456896798E40B6B235434560C568BA
:100560004F000326BE40B543C560D5794E00B54067
:10057000C6683543C560491C1029BFD3F0BDF0B52E
:10058000002300244D07ED0E02FA05F3CE1000F112
:10059000200555F826504E07F70E0F26BE40B543EE
:1005A000CF1000F1200646F82750CE1000F12005AC
:1005B00055F8265045EA0304CE1000F1200545F811
:1005C0002640F0BD418370470183704700BFFEE7BE
:1005D0001CB50121084600F081F8C02000900120E0
:1005E0008DF8040000208DF8060002208DF805002B
:1005F00001208DF8070069460348FFF778FFC02106
:100600000148FFF7E1FF1CBD0000024010B5104893
:100610000068B0F5FA7F09D30D480068B0F57A7F1D
:1006200004D240210B48FFF7CFFF0BE008480068D9
:10063000B0F57A7F06D340210648FFF7C3FF0020BC
:100640000349086002480068401C0149086010BD69
:100650001C0000200000024000BFFEE770470000C1
:1006600070B5002100230F22C4781CB3174C2468F6
:1006700004F4E064C4F5E064C4F30721C1F10404A8
:10068000E3B20A4144789C40E1B2847814402143AB
:100690000C07210E0E4C05786155047804F01F05F7
:1006A0000124AC4005786D11AD0005F1E025C5F8D9
:1006B000004109E0047804F01F050124AC40054D19
:1006C0000678761145F8264070BD00000CED00E07C
:1006D00000E400E080E100E07047000029B1064A34
:1006E00012680243044B1A6004E0034A1268824312
:1006F000014B1A60704700003038024029B1064AA9
:1007000012680243044B1A6004E0034A12688243F1
:10071000014B1A60704700004038024029B1064A78
:1007200012680243044B1A6004E0034A12688243D1
:10073000014B1A607047000044380240F0B50021B8
:1007400000220024022500260223324F3F6807F0D2
:100750000C0121B1042905D0082937D105E02E4F1D
:10076000076036E02D4F076033E02A4F3F1F3F6898
:10077000C7F38056274F3F1F3F6807F03F036EB116
:10078000264FB7FBF3F7DFF88CC0ACF1040CDCF8B4
:1007900000C0CCF3881C07FB0CF40CE01E4FB7FB29
:1007A000F3F7DFF870C0ACF1040CDCF800C0CCF358
:1007B000881C07FB0CF4174F3F1F3F68C7F3014726
:1007C0007F1C7D00B4FBF5F7076002E0124F076065
:1007D00000BF00BF0F4F3F6807F0F0010909104F3D
:1007E0007A5C0768D74047600A4F3F6807F4E051DA
:1007F000890A0B4F7A5C4768D7408760054F3F688E
:1008000007F46041490B064F7A5C4768D740C760E0
:10081000F0BD0000083802400024F40000127A0005
:1008200000000020704700000CB5002001900090EF
:100830003448006840F480303249086000BF3148D5
:10084000006800F4003000900198401C019000986E
:1008500018B90198B0F5A04FF1D12A48006800F40A
:10086000003010B10120009001E0002000900098BD
:10087000012846D123484030006840F0805021498B
:10088000403108602048006840F440401E4908603C
:100890001C48083000681B49083108600846006899
:1008A00040F4004008600846006840F4A05008602A
:1008B0001648091F0860081F006840F08070091F73
:1008C000086000BF0F48006800F000700028F9D0F1
:1008D00040F205700E4908600A480830006820F0B0
:1008E00003000849083108600846006840F002002B
:1008F000086000BF03480830006800F00C000828BA
:10090000F8D10CBD00380240007000400854400788
:10091000003C0240042808D14FF0E021096941F071
:1009200004014FF0E022116107E04FF0E021096976
:1009300021F004014FF0E022116170477047000080
:1009400010B51548006840F470001349086013485A
:10095000006840F001001149086000200F4908318B
:1009600008600E4800680E4908400C4908600D48B0
:10097000091D0860081F006820F48020091F086016
:10098000002006490C310860FFF74EFF4FF0006071
:1009900001498039086010BD88ED00E00038024050
:1009A000FFFFF6FE1030002410B50121054800F0CD
:1009B00048F8012801D100F0A1F80121014800F018
:1009C00031F810BD000400407FB505460C460121FA
:1009D0000220FFF793FE0295ADF804400020ADF829
:1009E0000600ADF80C0001A90D4800F045F8012201
:1009F00011460B4800F036F80121094800F015F8BF
:100A00001D208DF8000001208DF8010003208DF8D5
:100A1000020001208DF803006846FFF721FE7FBD2C
:100A200000040040CA430282704721B1028842F0AC
:100A30000102028004E002884FF6FE731A40028031
:100A4000704730B50246002000230024158A05EACD
:100A50000103958905EA010413B10CB1012000E0FE
:100A6000002030BD1AB183890B43838102E0838962
:100A70008B4383817047000000220288184B984204
:100A80000ED0184B98420BD0B0F1804F08D0164BC7
:100A9000984205D0154B984202D0154B984204D18C
:100AA0004FF68F731A404B881A43124B984207D067
:100AB000114B984204D04FF6FF431A400B891A435A
:100AC00002804B68C3620B880385054B984202D0B5
:100AD000044B984201D18B7A0386012383827047AD
:100AE00000000140000401400004004000080040F4
:100AF000000C0040001000400014004010B5002021
:100B000000F0E8FBFFF782FD00F0C2FA10BD000024
:100B100010B540F22551164800F052F838B3144889
:100B200000F008F9C4B2232C02D10020114908704A
:100B300011481049097844540078232817D10E48E9
:100B4000C079212808D10B480078072804D100F08B
:100B5000E1FA00200749087006480078401C054962
:100B6000087008460078082801DB0020087010BDD6
:100B7000001001401A0000206801002001F40072FA
:100B8000B2F5007F00D100BFCA430280704721B197
:100B9000828942F40052828104E082894DF6FF731B
:100BA0001A408281704702460020B1F5007F00D1D3
:100BB00000BF13880B400BB1012000E000207047FC
:100BC00070B50246002400230025002040F66A1676
:100BD000B14200D100BFC1F3421501F01F0301264D
:100BE00006FA03F3012D02D19689334006E0022D67
:100BF00002D1168A334001E0968A33400C12012656
:100C000006FA04F41688344013B10CB1012000E058
:100C1000002070BDF0B5034600240026002500200A
:100C200040F66A17B94200D100BF1846C1F342141A
:100C300001F01F06012707FA06F5012C01D10C303F
:100C400004E0022C01D1103000E014301AB1076822
:100C50002F43076002E00768AF430760F0BD000064
:100C60002DE9FF4705460E460024A14600BFA046D9
:100C7000B08900B100BF2C8A24F44054F0880443AA
:100C80002C82AC8941F20C608443B08831890843DE
:100C9000718908430443AC81AC8A24F44074B08960
:100CA0000443AC826846FFF749FD2048854202D0E4
:100CB0001F48854202D1DDF80C9001E0DDF8089074
:100CC000A88900F4004040B109EBC90000EB09100D
:100CD00031684900B0FBF1F707E009EBC90000EB10
:100CE000091031688900B0FBF1F76420B7FBF0F020
:100CF00004012009642101FB1078A88900F4004058
:100D000040B1322000EBC800B0FBF1F000F007006A
:100D1000044308E0322000EB08106421B0FBF1F03E
:100D200000F00F0004432C81BDE8FF870010014054
:100D30000014014001468888C0F308007047C1F3E1
:100D400008028280704700BFFEE7014600BF70477F
:100D500010B5002400BF51E02A4850F824103C3060
:100D600050F82400814208D2611C01EB410202EBE1
:100D7000C101C8B200F0AEFA0EE0224850F82410CB
:100D8000303050F82400814206D9611C01EB81010A
:100D90004906080E00F09EFA1A480C3050F824104C
:100DA000303050F8240081420FD216483C3050F8C1
:100DB0002410303840F82410611C01EB810202EB52
:100DC000C101C8B200F086FA16E00E480C3050F8A7
:100DD0002410243050F8240081420DD909483030C5
:100DE00050F82410243840F82410611C01EB410114
:100DF0008906080E00F06EFA601CC4B2032CABDB4F
:100E000010BD00003002002001460022002002E058
:100E10000B5C1A44401C0628FAD3104670470000A9
:100E200010B504466FF00400FFF774FDE11704EB02
:100E30005171C1F3C701074A11701046007800EBE9
:100E40004001C1EBC0104FF6FF7101EAC00002493A
:100E5000088010BD100000201200002070B504466C
:100E60004FF4077094FBF0F0C6B24FF4077094FB98
:100E7000F0F100FB114085B205E04FF4077000F07F
:100E800009F8701EC6B2002EF7D115B1284600F041
:100E900001F870BD0146114A12884A434FF0E02321
:100EA0005A6100229A611A46126942F001021A61DF
:100EB00000BF4FF0E022106900F001021AB100F407
:100EC0008032002AF5D04FF0E022126922F00102B0
:100ED0004FF0E0231A6100229A617047120000204F
:100EE00030B5002410E0611CC8B2002100F098FA6F
:100EF000611CC8B200F074F80546611CC8B22946EE
:100F000000F0EEF9601CC4B2032CECDB30BD000035
:100F100070B504460D4600BF40210548FFF743FE6B
:100F20000028F9D0E1B20248FFF709FF204670BD62
:100F30000010014010B505210848C0F8841000F0E9
:100F40000FF80649C1F8880000210448C0F88C1049
:100F5000C0F89010C0F8941010BD0000840200206A
:100F60000148007870470000270000200146012951
:100F700006DB032904DC481E024A52F820007047B1
:100F80000020FCE73C02002010B5002423E0601C98
:100F9000124901EB44114860611CC8B200F020F80E
:100FA0000E4901EB44118860611CC8B2FFF7DEFFF7
:100FB0000A4901EB4411C860611CC8B200F01EF878
:100FC000064901EB441108610020044901EB44117A
:100FD0004861601CC4B2032CD9DB10BD8402002020
:100FE0000146012906DB032904DC481E024A52F8A7
:100FF000200070470020FCE7300200200146012954
:1010000006DB032904DC481E024A52F82000704720
:101010000020FCE74802002004210448416600212A
:101020008166C16601674167704700008402002045
:1010300000F04AFA04E00120FFF710FF00F0DEF8AC
:10104000F9E7000010B5012804D0022805D00328D4
:101050000BD106E00C4A116008E00B4A0C3211601B
:1010600004E0094A1832116000E000BF00BF012807
:1010700009DB032807DC09B9012400E00024421E33
:10108000024B43F8224010BDA0024242540200200D
:1010900010B50024FFF75CFE00BF14E00C4850F8C8
:1010A00024100C3050F82400814205D8611CC8B2CD
:1010B0000021FFF7C7FF04E0611CC8B20121FFF760
:1010C000C1FF601CC4B2032CE8DB00F027F910BD9F
:1010D000300200201CB501211020FFF7FFFA4FF667
:1010E0008070009001208DF8040000208DF806002B
:1010F00002208DF8050001208DF80700694604489C
:10110000FFF7F5F94FF680710148FFF75DFA1CBD56
:101110000010024070B50024374880780006364938
:10112000C97800EB01403449097900EB01203249CC
:1011300049794518304844780E2C43D00ADC0E2CEF
:1011400056D2DFE804F0551A26323E4A5555555519
:10115000551B2733172C2AD006DC0F2C3ED0152C1C
:101160000DD0162C44D116E0182C2CD0192C36D0CA
:10117000292C3DD1FFF7B4FE3BE000BF00BF0A20A1
:1011800094FBF0F0401CC6B22946304600F0B4F89B
:101190002FE000BF00BF0A2094FBF0F0401CC6B255
:1011A0006942304600F0A8F823E000BF00BF0A20E3
:1011B00094FBF0F0401CC6B2A9B2304600F030F902
:1011C00017E000BF00BF0A2094FBF0F0401CC6B23D
:1011D0002946304600F084F80BE000BF00BF0A202B
:1011E00094FBF0F0401CC6B2304600F025F900E058
:1011F00000BF00BF70BD00006801002010B586B0C0
:101200002A480078401C294908702948007808B904
:1012100000F030F9254800780A2845DB25482449A4
:10122000097800EB4110C0692249214A127801EB8C
:10123000421189691F4A1E4B1B7802EB4312526907
:101240001C4B1B4C247803EB44131B69CDE9013282
:10125000CDE9031017481649097800EB4110C06822
:1012600000901448124C247800EB44108368114815
:101270000F4C247800EB441042680E480C4C247844
:1012800000EB441001680CA0FEF7F4FF084800785A
:10129000401C0749087008460078052801DB00203B
:1012A000087000200149087006B010BD260000201B
:1012B00025000020840200202325642C25642C2591
:1012C000642C25642C25642C25642C25642C256431
:1012D000000000000149087070470000270000204E
:1012E000012805DB032803DC421E024B43F82210D1
:1012F000704700003C02002010B501280ADB0328DB
:1013000008DC421E044B53F822205418421E0C33B2
:1013100043F8224010BD00003002002000210020D0
:1013200072E03B4A52F820300C3252F820209342AF
:1013300066D00022374B1A54354A183252F8201022
:10134000354A52F820208A4217D2421C012A04D082
:10135000022A06D0032A0ED108E001222F4B1A6080
:101360000AE001222D4B0C331A6005E001222B4BC1
:1013700018331A6000E000BF3AE0274A52F82020F4
:101380008A421DD3244A52F820204B009A4217D299
:10139000421C012A04D0022A06D0032A0ED108E0FA
:1013A00000221E4B1A600AE000221C4B0C331A600C
:1013B00005E00022194B18331A6000E000BF17E067
:1013C0000022154B43F82020114A243252F82020E5
:1013D0003AB10F4A52F82020521C0D4B43F82020FE
:1013E00006E00B4A52F82020521E094B43F82020F9
:1013F000094A52F82020521C074B43F8202002E0F3
:101400000122044B1A54401C03288AD37047000061
:10141000300200202100002078020020A402424275
:10142000012805DB032803DC421E024B43F822108F
:10143000704700004802002001280BDB032809DC6C
:101440000022411E044B43F821200023024A0C32A3
:1014500042F821307047000030020020012805DBEF
:10146000032803DC421E024B43F8221070470000A1
:101470006002002010B500200CE07B21114A02EB35
:101480004012116040F241110E4A02EB4012D1614C
:10149000411CC8B20528F0DBFFF776FDFFF7BCFD65
:1014A000FFF748FD00240AE0064901EB4410FFF76E
:1014B000ABFC044901EB44118861601CC4B2052CEB
:1014C000F2DB10BD8402002010B5A820FFF7A8FCB5
:1014D0004FF4E13000F01AF8FFF77AF8FFF7FAFD61
:1014E00042F2CF010920FFF76FFA42F2107101209A
:1014F000FFF7B4FF42F210710220FFF7AFFF42F294
:1015000010710320FFF7AAFF10BD000010B588B0CE
:10151000044601210846FFF7E1F801211020FFF7FA
:10152000FDF8072209212548FFF729F807220A219B
:101530002248FFF724F84FF4C060069002208DF88F
:101540001C0003208DF81D0000208DF81E000120D6
:101550008DF81F0006A91948FEF7C9FF0294002064
:10156000ADF80C00ADF80E00ADF81000ADF81400A9
:101570000C20ADF8120002A91148FFF771FB012100
:101580000F48FFF704FB40210D48FFF7F7FA01224F
:1015900040F225510A48FFF73DFB25208DF8040055
:1015A00003208DF805008DF8060001208DF8070056
:1015B00001A8FFF755F808B010BD00000000024078
:1015C000001001404FF04070E1EE100A704700003B
:1015D000F01500080000002028000000C4010008E9
:1015E0001816000828000020000A0000E00100088A
:1015F00000000000010203040102030406070809B9
:1016000000000000000000000000000000000000DA
:081610000000000000000000D2
:040000050800018965
:00000001FF
